{
  "contractName": "HiblocksToken",
  "abi": [
    {
      "constant": true,
      "inputs": [],
      "name": "name",
      "outputs": [
        {
          "name": "",
          "type": "string"
        }
      ],
      "payable": false,
      "stateMutability": "view",
      "type": "function"
    },
    {
      "constant": false,
      "inputs": [
        {
          "name": "spender",
          "type": "address"
        },
        {
          "name": "value",
          "type": "uint256"
        }
      ],
      "name": "approve",
      "outputs": [
        {
          "name": "",
          "type": "bool"
        }
      ],
      "payable": false,
      "stateMutability": "nonpayable",
      "type": "function"
    },
    {
      "constant": true,
      "inputs": [
        {
          "name": "_of",
          "type": "address"
        }
      ],
      "name": "lockBalanceOf",
      "outputs": [
        {
          "name": "amount",
          "type": "uint256"
        }
      ],
      "payable": false,
      "stateMutability": "view",
      "type": "function"
    },
    {
      "constant": true,
      "inputs": [
        {
          "name": "_of",
          "type": "address"
        },
        {
          "name": "_reason",
          "type": "bytes32"
        },
        {
          "name": "_time",
          "type": "uint256"
        }
      ],
      "name": "tokensLockedAtTime",
      "outputs": [
        {
          "name": "amount",
          "type": "uint256"
        }
      ],
      "payable": false,
      "stateMutability": "view",
      "type": "function"
    },
    {
      "constant": true,
      "inputs": [],
      "name": "totalSupply",
      "outputs": [
        {
          "name": "",
          "type": "uint256"
        }
      ],
      "payable": false,
      "stateMutability": "view",
      "type": "function"
    },
    {
      "constant": false,
      "inputs": [
        {
          "name": "_stake",
          "type": "uint256"
        }
      ],
      "name": "createStake",
      "outputs": [],
      "payable": false,
      "stateMutability": "nonpayable",
      "type": "function"
    },
    {
      "constant": false,
      "inputs": [
        {
          "name": "from",
          "type": "address"
        },
        {
          "name": "to",
          "type": "address"
        },
        {
          "name": "value",
          "type": "uint256"
        }
      ],
      "name": "transferFrom",
      "outputs": [
        {
          "name": "",
          "type": "bool"
        }
      ],
      "payable": false,
      "stateMutability": "nonpayable",
      "type": "function"
    },
    {
      "constant": false,
      "inputs": [
        {
          "name": "_of",
          "type": "address"
        }
      ],
      "name": "unlock",
      "outputs": [
        {
          "name": "unlockableTokens",
          "type": "uint256"
        }
      ],
      "payable": false,
      "stateMutability": "nonpayable",
      "type": "function"
    },
    {
      "constant": true,
      "inputs": [],
      "name": "decimals",
      "outputs": [
        {
          "name": "",
          "type": "uint8"
        }
      ],
      "payable": false,
      "stateMutability": "view",
      "type": "function"
    },
    {
      "constant": false,
      "inputs": [
        {
          "name": "spender",
          "type": "address"
        },
        {
          "name": "addedValue",
          "type": "uint256"
        }
      ],
      "name": "increaseAllowance",
      "outputs": [
        {
          "name": "",
          "type": "bool"
        }
      ],
      "payable": false,
      "stateMutability": "nonpayable",
      "type": "function"
    },
    {
      "constant": false,
      "inputs": [],
      "name": "unpause",
      "outputs": [],
      "payable": false,
      "stateMutability": "nonpayable",
      "type": "function"
    },
    {
      "constant": true,
      "inputs": [
        {
          "name": "_stakeholder",
          "type": "address"
        }
      ],
      "name": "stakeOf",
      "outputs": [
        {
          "name": "",
          "type": "uint256"
        }
      ],
      "payable": false,
      "stateMutability": "view",
      "type": "function"
    },
    {
      "constant": false,
      "inputs": [],
      "name": "renounceWhitelistAdmin",
      "outputs": [],
      "payable": false,
      "stateMutability": "nonpayable",
      "type": "function"
    },
    {
      "constant": false,
      "inputs": [
        {
          "name": "_to",
          "type": "address"
        },
        {
          "name": "_reason",
          "type": "bytes32"
        },
        {
          "name": "_amount",
          "type": "uint256"
        },
        {
          "name": "_time",
          "type": "uint256"
        }
      ],
      "name": "transferWithLock",
      "outputs": [
        {
          "name": "",
          "type": "bool"
        }
      ],
      "payable": false,
      "stateMutability": "nonpayable",
      "type": "function"
    },
    {
      "constant": true,
      "inputs": [
        {
          "name": "_of",
          "type": "address"
        },
        {
          "name": "_reason",
          "type": "bytes32"
        }
      ],
      "name": "tokensUnlockable",
      "outputs": [
        {
          "name": "amount",
          "type": "uint256"
        }
      ],
      "payable": false,
      "stateMutability": "view",
      "type": "function"
    },
    {
      "constant": false,
      "inputs": [
        {
          "name": "_stakeFlag",
          "type": "bool"
        }
      ],
      "name": "setStakeFlag",
      "outputs": [
        {
          "name": "",
          "type": "bool"
        }
      ],
      "payable": false,
      "stateMutability": "nonpayable",
      "type": "function"
    },
    {
      "constant": true,
      "inputs": [],
      "name": "paused",
      "outputs": [
        {
          "name": "",
          "type": "bool"
        }
      ],
      "payable": false,
      "stateMutability": "view",
      "type": "function"
    },
    {
      "constant": true,
      "inputs": [
        {
          "name": "_of",
          "type": "address"
        },
        {
          "name": "_reason",
          "type": "bytes32"
        }
      ],
      "name": "tokensLocked",
      "outputs": [
        {
          "name": "amount",
          "type": "uint256"
        }
      ],
      "payable": false,
      "stateMutability": "view",
      "type": "function"
    },
    {
      "constant": true,
      "inputs": [
        {
          "name": "account",
          "type": "address"
        }
      ],
      "name": "balanceOf",
      "outputs": [
        {
          "name": "",
          "type": "uint256"
        }
      ],
      "payable": false,
      "stateMutability": "view",
      "type": "function"
    },
    {
      "constant": true,
      "inputs": [
        {
          "name": "",
          "type": "address"
        },
        {
          "name": "",
          "type": "uint256"
        }
      ],
      "name": "lockReason",
      "outputs": [
        {
          "name": "",
          "type": "bytes32"
        }
      ],
      "payable": false,
      "stateMutability": "view",
      "type": "function"
    },
    {
      "constant": false,
      "inputs": [
        {
          "name": "account",
          "type": "address"
        }
      ],
      "name": "addWhitelistAdmin",
      "outputs": [],
      "payable": false,
      "stateMutability": "nonpayable",
      "type": "function"
    },
    {
      "constant": true,
      "inputs": [
        {
          "name": "account",
          "type": "address"
        }
      ],
      "name": "getIndexOfAdmin",
      "outputs": [
        {
          "name": "",
          "type": "uint256"
        }
      ],
      "payable": false,
      "stateMutability": "view",
      "type": "function"
    },
    {
      "constant": true,
      "inputs": [
        {
          "name": "_of",
          "type": "address"
        }
      ],
      "name": "getSizeOfLockReason",
      "outputs": [
        {
          "name": "",
          "type": "uint256"
        }
      ],
      "payable": false,
      "stateMutability": "view",
      "type": "function"
    },
    {
      "constant": false,
      "inputs": [],
      "name": "pause",
      "outputs": [],
      "payable": false,
      "stateMutability": "nonpayable",
      "type": "function"
    },
    {
      "constant": true,
      "inputs": [
        {
          "name": "",
          "type": "address"
        },
        {
          "name": "",
          "type": "uint256"
        }
      ],
      "name": "memos",
      "outputs": [
        {
          "name": "",
          "type": "bytes"
        }
      ],
      "payable": false,
      "stateMutability": "view",
      "type": "function"
    },
    {
      "constant": false,
      "inputs": [
        {
          "name": "_stake",
          "type": "uint256"
        }
      ],
      "name": "removeStake",
      "outputs": [],
      "payable": false,
      "stateMutability": "nonpayable",
      "type": "function"
    },
    {
      "constant": true,
      "inputs": [],
      "name": "symbol",
      "outputs": [
        {
          "name": "",
          "type": "string"
        }
      ],
      "payable": false,
      "stateMutability": "view",
      "type": "function"
    },
    {
      "constant": false,
      "inputs": [
        {
          "name": "spender",
          "type": "address"
        },
        {
          "name": "subtractedValue",
          "type": "uint256"
        }
      ],
      "name": "decreaseAllowance",
      "outputs": [
        {
          "name": "",
          "type": "bool"
        }
      ],
      "payable": false,
      "stateMutability": "nonpayable",
      "type": "function"
    },
    {
      "constant": false,
      "inputs": [
        {
          "name": "to",
          "type": "address"
        },
        {
          "name": "value",
          "type": "uint256"
        }
      ],
      "name": "transfer",
      "outputs": [
        {
          "name": "",
          "type": "bool"
        }
      ],
      "payable": false,
      "stateMutability": "nonpayable",
      "type": "function"
    },
    {
      "constant": true,
      "inputs": [
        {
          "name": "_of",
          "type": "address"
        }
      ],
      "name": "getUnlockableTokens",
      "outputs": [
        {
          "name": "unlockableTokens",
          "type": "uint256"
        }
      ],
      "payable": false,
      "stateMutability": "view",
      "type": "function"
    },
    {
      "constant": true,
      "inputs": [
        {
          "name": "account",
          "type": "address"
        }
      ],
      "name": "isWhitelistAdmin",
      "outputs": [
        {
          "name": "",
          "type": "bool"
        }
      ],
      "payable": false,
      "stateMutability": "view",
      "type": "function"
    },
    {
      "constant": true,
      "inputs": [],
      "name": "totalStakes",
      "outputs": [
        {
          "name": "",
          "type": "uint256"
        }
      ],
      "payable": false,
      "stateMutability": "view",
      "type": "function"
    },
    {
      "constant": true,
      "inputs": [],
      "name": "stakePeriod",
      "outputs": [
        {
          "name": "validStakePeriodStart",
          "type": "uint256"
        },
        {
          "name": "validStakePeriodEnd",
          "type": "uint256"
        }
      ],
      "payable": false,
      "stateMutability": "view",
      "type": "function"
    },
    {
      "constant": false,
      "inputs": [
        {
          "name": "_to",
          "type": "address"
        },
        {
          "name": "_reason",
          "type": "bytes32"
        },
        {
          "name": "_amount",
          "type": "uint256"
        }
      ],
      "name": "increaseLockAmount",
      "outputs": [
        {
          "name": "",
          "type": "bool"
        }
      ],
      "payable": false,
      "stateMutability": "nonpayable",
      "type": "function"
    },
    {
      "constant": true,
      "inputs": [],
      "name": "isAbleToStake",
      "outputs": [
        {
          "name": "",
          "type": "bool"
        }
      ],
      "payable": false,
      "stateMutability": "view",
      "type": "function"
    },
    {
      "constant": false,
      "inputs": [
        {
          "name": "_startTime",
          "type": "uint256"
        },
        {
          "name": "_duration",
          "type": "uint256"
        }
      ],
      "name": "setvalidStakePeriod",
      "outputs": [
        {
          "name": "",
          "type": "uint256"
        },
        {
          "name": "",
          "type": "uint256"
        }
      ],
      "payable": false,
      "stateMutability": "nonpayable",
      "type": "function"
    },
    {
      "constant": true,
      "inputs": [
        {
          "name": "",
          "type": "address"
        },
        {
          "name": "",
          "type": "bytes32"
        }
      ],
      "name": "locked",
      "outputs": [
        {
          "name": "amount",
          "type": "uint256"
        },
        {
          "name": "validity",
          "type": "uint256"
        },
        {
          "name": "claimed",
          "type": "bool"
        }
      ],
      "payable": false,
      "stateMutability": "view",
      "type": "function"
    },
    {
      "constant": true,
      "inputs": [],
      "name": "getAdminList",
      "outputs": [
        {
          "name": "",
          "type": "address[]"
        }
      ],
      "payable": false,
      "stateMutability": "view",
      "type": "function"
    },
    {
      "constant": true,
      "inputs": [
        {
          "name": "owner",
          "type": "address"
        },
        {
          "name": "spender",
          "type": "address"
        }
      ],
      "name": "allowance",
      "outputs": [
        {
          "name": "",
          "type": "uint256"
        }
      ],
      "payable": false,
      "stateMutability": "view",
      "type": "function"
    },
    {
      "constant": false,
      "inputs": [
        {
          "name": "_to",
          "type": "address"
        },
        {
          "name": "_reason",
          "type": "bytes32"
        },
        {
          "name": "_time",
          "type": "uint256"
        }
      ],
      "name": "extendLock",
      "outputs": [
        {
          "name": "",
          "type": "bool"
        }
      ],
      "payable": false,
      "stateMutability": "nonpayable",
      "type": "function"
    },
    {
      "constant": true,
      "inputs": [
        {
          "name": "_of",
          "type": "address"
        },
        {
          "name": "_reason",
          "type": "bytes32"
        }
      ],
      "name": "tokensValidity",
      "outputs": [
        {
          "name": "validity",
          "type": "uint256"
        }
      ],
      "payable": false,
      "stateMutability": "view",
      "type": "function"
    },
    {
      "constant": true,
      "inputs": [],
      "name": "stakeholderList",
      "outputs": [
        {
          "name": "",
          "type": "address[]"
        }
      ],
      "payable": false,
      "stateMutability": "view",
      "type": "function"
    },
    {
      "constant": true,
      "inputs": [
        {
          "name": "_address",
          "type": "address"
        }
      ],
      "name": "isStakeholder",
      "outputs": [
        {
          "name": "",
          "type": "bool"
        },
        {
          "name": "",
          "type": "uint256"
        }
      ],
      "payable": false,
      "stateMutability": "view",
      "type": "function"
    },
    {
      "inputs": [
        {
          "name": "name",
          "type": "string"
        },
        {
          "name": "symbol",
          "type": "string"
        },
        {
          "name": "decimals",
          "type": "uint8"
        },
        {
          "name": "initialSupply",
          "type": "uint256"
        }
      ],
      "payable": false,
      "stateMutability": "nonpayable",
      "type": "constructor"
    },
    {
      "anonymous": false,
      "inputs": [
        {
          "indexed": false,
          "name": "account",
          "type": "address"
        },
        {
          "indexed": false,
          "name": "amount",
          "type": "uint256"
        }
      ],
      "name": "Staked",
      "type": "event"
    },
    {
      "anonymous": false,
      "inputs": [
        {
          "indexed": false,
          "name": "account",
          "type": "address"
        },
        {
          "indexed": false,
          "name": "amount",
          "type": "uint256"
        }
      ],
      "name": "Unstaked",
      "type": "event"
    },
    {
      "anonymous": false,
      "inputs": [
        {
          "indexed": false,
          "name": "_startTime",
          "type": "uint256"
        },
        {
          "indexed": false,
          "name": "_duration",
          "type": "uint256"
        },
        {
          "indexed": false,
          "name": "stakeFlag",
          "type": "bool"
        }
      ],
      "name": "validStakePeriod",
      "type": "event"
    },
    {
      "anonymous": false,
      "inputs": [
        {
          "indexed": true,
          "name": "_of",
          "type": "address"
        },
        {
          "indexed": true,
          "name": "_reason",
          "type": "bytes32"
        },
        {
          "indexed": false,
          "name": "_amount",
          "type": "uint256"
        },
        {
          "indexed": false,
          "name": "_validity",
          "type": "uint256"
        }
      ],
      "name": "Locked",
      "type": "event"
    },
    {
      "anonymous": false,
      "inputs": [
        {
          "indexed": true,
          "name": "_of",
          "type": "address"
        },
        {
          "indexed": true,
          "name": "_reason",
          "type": "bytes32"
        },
        {
          "indexed": false,
          "name": "_amount",
          "type": "uint256"
        }
      ],
      "name": "Unlocked",
      "type": "event"
    },
    {
      "anonymous": false,
      "inputs": [
        {
          "indexed": false,
          "name": "account",
          "type": "address"
        }
      ],
      "name": "Paused",
      "type": "event"
    },
    {
      "anonymous": false,
      "inputs": [
        {
          "indexed": false,
          "name": "account",
          "type": "address"
        }
      ],
      "name": "Unpaused",
      "type": "event"
    },
    {
      "anonymous": false,
      "inputs": [
        {
          "indexed": true,
          "name": "account",
          "type": "address"
        }
      ],
      "name": "WhitelistAdminAdded",
      "type": "event"
    },
    {
      "anonymous": false,
      "inputs": [
        {
          "indexed": true,
          "name": "account",
          "type": "address"
        }
      ],
      "name": "WhitelistAdminRemoved",
      "type": "event"
    },
    {
      "anonymous": false,
      "inputs": [
        {
          "indexed": true,
          "name": "from",
          "type": "address"
        },
        {
          "indexed": true,
          "name": "to",
          "type": "address"
        },
        {
          "indexed": false,
          "name": "value",
          "type": "uint256"
        }
      ],
      "name": "Transfer",
      "type": "event"
    },
    {
      "anonymous": false,
      "inputs": [
        {
          "indexed": true,
          "name": "owner",
          "type": "address"
        },
        {
          "indexed": true,
          "name": "spender",
          "type": "address"
        },
        {
          "indexed": false,
          "name": "value",
          "type": "uint256"
        }
      ],
      "name": "Approval",
      "type": "event"
    },
    {
      "constant": false,
      "inputs": [
        {
          "name": "to",
          "type": "address"
        },
        {
          "name": "value",
          "type": "uint256"
        },
        {
          "name": "memo",
          "type": "bytes"
        }
      ],
      "name": "transferWithMemo",
      "outputs": [
        {
          "name": "",
          "type": "bool"
        }
      ],
      "payable": false,
      "stateMutability": "nonpayable",
      "type": "function"
    },
    {
      "constant": true,
      "inputs": [
        {
          "name": "addr",
          "type": "address"
        },
        {
          "name": "blockNumber",
          "type": "uint256"
        }
      ],
      "name": "memoOf",
      "outputs": [
        {
          "name": "",
          "type": "bytes"
        }
      ],
      "payable": false,
      "stateMutability": "view",
      "type": "function"
    },
    {
      "constant": false,
      "inputs": [
        {
          "name": "amount",
          "type": "uint256"
        }
      ],
      "name": "burn",
      "outputs": [],
      "payable": false,
      "stateMutability": "nonpayable",
      "type": "function"
    },
    {
      "constant": false,
      "inputs": [
        {
          "name": "addr",
          "type": "address"
        },
        {
          "name": "amount",
          "type": "uint256"
        }
      ],
      "name": "burnFrom",
      "outputs": [],
      "payable": false,
      "stateMutability": "nonpayable",
      "type": "function"
    },
    {
      "constant": true,
      "inputs": [
        {
          "name": "_addr",
          "type": "address"
        }
      ],
      "name": "totalBalanceOf",
      "outputs": [
        {
          "name": "amount",
          "type": "uint256"
        },
        {
          "name": "token",
          "type": "uint256"
        },
        {
          "name": "locked",
          "type": "uint256"
        },
        {
          "name": "staked",
          "type": "uint256"
        }
      ],
      "payable": false,
      "stateMutability": "view",
      "type": "function"
    }
  ],
  "bytecode": "0x60806040523480156200001157600080fd5b5060405162003d1e38038062003d1e833981018060405260808110156200003757600080fd5b8101908080516401000000008111156200005057600080fd5b820160208101848111156200006457600080fd5b81516401000000008111828201871017156200007f57600080fd5b505092919060200180516401000000008111156200009c57600080fd5b82016020810184811115620000b057600080fd5b8151640100000000811182820187101715620000cb57600080fd5b50506020808301516040909301518651929550929350859185918591620000f9916000919086019062000580565b5081516200010f90600190602085019062000580565b506002805460ff191660ff92909216919091179055506200014890506200013c620001ff602090811b901c565b6200020460201b60201c565b6008805460ff1990811690915562093a80600d55617e90600e55617e8f194201600f5560108054909116905580620001cc576040517f08c379a000000000000000000000000000000000000000000000000000000000815260040180806020018281038252602881526020018062003cf66028913960400191505060405180910390fd5b620001f5620001e0620001ff60201b60201c565b8360ff16600a0a83026200026c60201b60201c565b5050505062000622565b335b90565b6200021a816200038b60201b620031a81760201c565b600780546001810182556000919091527fa66cc928b5edb82af9bd49922954155ab7b0942694bea4ce44661d9a8736c6880180546001600160a01b0319166001600160a01b0392909216919091179055565b6001600160a01b038216620002e257604080517f08c379a000000000000000000000000000000000000000000000000000000000815260206004820152601f60248201527f45524332303a206d696e7420746f20746865207a65726f206164647265737300604482015290519081900360640190fd5b620002fe81600554620003dd60201b6200275f1790919060201c565b6005556001600160a01b038216600090815260036020908152604090912054620003339183906200275f620003dd821b17901c565b6001600160a01b03831660008181526003602090815260408083209490945583518581529351929391927fddf252ad1be2c89b69c2b068fc378daa952ba7f163c4a11628f55a4df523b3ef9281900390910190a35050565b620003a68160066200045960201b620033271790919060201c565b6040516001600160a01b038216907f22380c05984257a1cb900161c713dd71d39e74820f1aea43bd3f1bdd2096129990600090a250565b6000828201838110156200045257604080517f08c379a000000000000000000000000000000000000000000000000000000000815260206004820152601b60248201527f536166654d6174683a206164646974696f6e206f766572666c6f770000000000604482015290519081900360640190fd5b9392505050565b6200046b8282620004fd60201b60201c565b15620004d857604080517f08c379a000000000000000000000000000000000000000000000000000000000815260206004820152601f60248201527f526f6c65733a206163636f756e7420616c72656164792068617320726f6c6500604482015290519081900360640190fd5b6001600160a01b0316600090815260209190915260409020805460ff19166001179055565b60006001600160a01b03821662000560576040517f08c379a000000000000000000000000000000000000000000000000000000000815260040180806020018281038252602281526020018062003cd46022913960400191505060405180910390fd5b506001600160a01b03166000908152602091909152604090205460ff1690565b828054600181600116156101000203166002900490600052602060002090601f016020900481019282601f10620005c357805160ff1916838001178555620005f3565b82800160010185558215620005f3579182015b82811115620005f3578251825591602001919060010190620005d6565b506200060192915062000605565b5090565b6200020191905b808211156200060157600081556001016200060c565b6136a280620006326000396000f3fe608060405234801561001057600080fd5b50600436106103205760003560e01c806379cc6790116101a7578063c1699a99116100ee578063dd62ed3e11610097578063ea32c78711610071578063ea32c78714610a3e578063ef037b9014610a46578063ef5ff4d214610a8757610320565b8063dd62ed3e146109b2578063e4d542b6146109e0578063e9f2dc2214610a1257610320565b8063d30e8cf3116100c8578063d30e8cf3146108eb578063d71be8db1461090e578063d9f774fc1461095a57610320565b8063c1699a9914610890578063c415ab0a146108b1578063ce20d9ec146108e357610320565b806395d89b4111610150578063ab4a2eb31161012a578063ab4a2eb31461083c578063bb5f747b14610862578063bf9befb11461088857610320565b806395d89b41146107dc578063a457c2d7146107e4578063a9059cbb1461081057610320565b80638456cb59116101815780638456cb591461078b57806386739e8a14610793578063939624ab146107bf57610320565b806379cc6790146107135780637a01f3701461073f578063840ce59d1461076557610320565b8063426233601161026b5780635b97b3c11161021457806370a08231116101ee57806370a082311461069b57806371d66f00146106c15780637362d9c8146106ed57610320565b80635b97b3c1146106485780635c975abb146106675780635ca48d8c1461066f57610320565b80634c5a628c116102455780634c5a628c146105dc5780634cb5465f146105e45780635294d0e81461061c57610320565b8063426233601461054d57806342966c68146105735780634b0ee02a1461059057610320565b80631bf6ddae116102cd578063313ce567116102a7578063313ce567146104fb57806339509351146105195780633f4ba83a1461054557610320565b80631bf6ddae1461048057806323b872dd1461049f5780632f6c493c146104d557610320565b8063179e91f1116102fe578063179e91f11461041a57806318160ddd1461044c578063191590a01461045457610320565b806306fdde0314610325578063095ea7b3146103a257806310e776ed146103e2575b600080fd5b61032d610b42565b6040805160208082528351818301528351919283929083019185019080838360005b8381101561036757818101518382015260200161034f565b50505050905090810190601f1680156103945780820380516001836020036101000a031916815260200191505b509250505060405180910390f35b6103ce600480360360408110156103b857600080fd5b506001600160a01b038135169060200135610bd9565b604080519115158252519081900360200190f35b610408600480360360208110156103f857600080fd5b50356001600160a01b0316610c4a565b60408051918252519081900360200190f35b6104086004803603606081101561043057600080fd5b506001600160a01b038135169060208101359060400135610cd2565b610408610d2d565b61032d6004803603604081101561046a57600080fd5b506001600160a01b038135169060200135610d33565b61049d6004803603602081101561049657600080fd5b5035610de7565b005b6103ce600480360360608110156104b557600080fd5b506001600160a01b03813581169160208101359091169060400135610f8a565b610408600480360360208110156104eb57600080fd5b50356001600160a01b0316610ffb565b6105036111c3565b6040805160ff9092168252519081900360200190f35b6103ce6004803603604081101561052f57600080fd5b506001600160a01b0381351690602001356111cc565b61049d611234565b6104086004803603602081101561056357600080fd5b50356001600160a01b031661132c565b61049d6004803603602081101561058957600080fd5b503561134b565b6105b6600480360360208110156105a657600080fd5b50356001600160a01b03166113a8565b604080519485526020850193909352838301919091526060830152519081900360800190f35b61049d6113f8565b6103ce600480360360808110156105fa57600080fd5b506001600160a01b03813516906020810135906040810135906060013561140a565b6104086004803603604081101561063257600080fd5b506001600160a01b03813516906020013561172a565b6103ce6004803603602081101561065e57600080fd5b503515156117b5565b6103ce61181a565b6104086004803603604081101561068557600080fd5b506001600160a01b038135169060200135611823565b610408600480360360208110156106b157600080fd5b50356001600160a01b031661187a565b610408600480360360408110156106d757600080fd5b506001600160a01b038135169060200135611895565b61049d6004803603602081101561070357600080fd5b50356001600160a01b03166118c3565b61049d6004803603604081101561072957600080fd5b506001600160a01b038135169060200135611915565b6104086004803603602081101561075557600080fd5b50356001600160a01b031661196c565b6104086004803603602081101561077b57600080fd5b50356001600160a01b03166119be565b61049d6119d9565b61032d600480360360408110156107a957600080fd5b506001600160a01b038135169060200135611ab3565b61049d600480360360208110156107d557600080fd5b5035611b57565b61032d611cfc565b6103ce600480360360408110156107fa57600080fd5b506001600160a01b038135169060200135611d5c565b6103ce6004803603604081101561082657600080fd5b506001600160a01b038135169060200135611dc4565b6104086004803603602081101561085257600080fd5b50356001600160a01b0316611e2c565b6103ce6004803603602081101561087857600080fd5b50356001600160a01b0316611e91565b610408611ea4565b610898611f09565b6040805192835260208301919091528051918290030190f35b6103ce600480360360608110156108c757600080fd5b506001600160a01b038135169060208101359060400135611fe1565b6103ce6121c7565b6108986004803603604081101561090157600080fd5b508035906020013561221d565b61093a6004803603604081101561092457600080fd5b506001600160a01b0381351690602001356122da565b604080519384526020840192909252151582820152519081900360600190f35b610962612309565b60408051602080825283518183015283519192839290830191858101910280838360005b8381101561099e578181015183820152602001610986565b505050509050019250505060405180910390f35b610408600480360360408110156109c857600080fd5b506001600160a01b03813581169160200135166123b3565b6103ce600480360360608110156109f657600080fd5b506001600160a01b0381351690602081013590604001356123de565b61040860048036036040811015610a2857600080fd5b506001600160a01b0381351690602001356125c0565b6109626125ea565b610a6c60048036036020811015610a5c57600080fd5b50356001600160a01b031661264a565b60408051921515835260208301919091528051918290030190f35b6103ce60048036036060811015610a9d57600080fd5b6001600160a01b0382351691602081013591810190606081016040820135640100000000811115610acd57600080fd5b820183602082011115610adf57600080fd5b80359060200191846001830284011164010000000083111715610b0157600080fd5b91908080601f0160208091040260200160405190810160405280939291908181526020018383808284376000920191909152509295506126a6945050505050565b60008054604080516020601f6002600019610100600188161502019095169490940493840181900481028201810190925282815260609390929091830182828015610bce5780601f10610ba357610100808354040283529160200191610bce565b820191906000526020600020905b815481529060010190602001808311610bb157829003601f168201915b505050505090505b90565b60085460009060ff1615610c375760408051600160e51b62461bcd02815260206004820152601060248201527f5061757361626c653a2070617573656400000000000000000000000000000000604482015290519081900360640190fd5b610c418383612742565b90505b92915050565b6000805b6001600160a01b038316600090815260096020526040902054811015610ccc57610cc2610cb58460096000876001600160a01b03166001600160a01b031681526020019081526020016000208481548110610ca557fe5b9060005260206000200154611823565b839063ffffffff61275f16565b9150600101610c4e565b50919050565b6001600160a01b0383166000908152600a60209081526040808320858452909152812060010154821015610d2657506001600160a01b0383166000908152600a602090815260408083208584529091529020545b9392505050565b60055490565b6001600160a01b038216600090815260116020908152604080832084845282529182902080548351601f6002600019610100600186161502019093169290920491820184900484028101840190945280845260609392830182828015610dda5780601f10610daf57610100808354040283529160200191610dda565b820191906000526020600020905b815481529060010190602001808311610dbd57829003601f168201915b5050505050905092915050565b60105460ff16610e415760408051600160e51b62461bcd02815260206004820152601160248201527f7374616b652069732064697361626c6564000000000000000000000000000000604482015290519081900360640190fd5b610e496121c7565b610e9d5760408051600160e51b62461bcd02815260206004820152601c60248201527f49742773206e6f742076616c69642074696d6520746f207374616b6500000000604482015290519081900360640190fd5b610ea73082611dc4565b610efb5760408051600160e51b62461bcd02815260206004820152601560248201527f546f6b656e207472616e73666572206661696c65640000000000000000000000604482015290519081900360640190fd5b336000908152600c6020526040902054610f1857610f18336127bc565b336000908152600c6020526040902054610f38908263ffffffff61275f16565b336000818152600c602090815260409182902093909355805191825291810183905281517f9e71bc8eea02a63969f509818f2dafb9254532904319f9dbda79b67bd34a5f3d929181900390910190a150565b60085460009060ff1615610fe85760408051600160e51b62461bcd02815260206004820152601060248201527f5061757361626c653a2070617573656400000000000000000000000000000000604482015290519081900360640190fd5b610ff384848461282d565b949350505050565b6000816001600160a01b038116331480611019575061101933611e91565b61105757604051600160e51b62461bcd0281526004018080602001828103825260278152602001806134676027913960400191505060405180910390fd5b6000805b6001600160a01b0385166000908152600960205260409020548110156111aa576001600160a01b038516600090815260096020526040902080546110b5918791849081106110a557fe5b906000526020600020015461172a565b915081156111a2576110cd848363ffffffff61275f16565b6001600160a01b0386166000908152600a602090815260408083206009909252822080549397506001939192918590811061110457fe5b60009182526020808320919091015483528281019390935260409182018120600201805460ff1916941515949094179093556001600160a01b03881683526009909152902080548290811061115557fe5b9060005260206000200154856001600160a01b03167f11f87fd5adcd05786919b8b868f59a70d78ae4eb6f305c5927f9c5b1659841a4846040518082815260200191505060405180910390a35b60010161105b565b83156111bb576111bb3086866128ba565b505050919050565b60025460ff1690565b60085460009060ff161561122a5760408051600160e51b62461bcd02815260206004820152601060248201527f5061757361626c653a2070617573656400000000000000000000000000000000604482015290519081900360640190fd5b610c418383612a1e565b61124461123f612a72565b611e91565b61128257604051600160e51b62461bcd0281526004018080602001828103825260408152602001806135846040913960400191505060405180910390fd5b60085460ff166112dc5760408051600160e51b62461bcd02815260206004820152601460248201527f5061757361626c653a206e6f7420706175736564000000000000000000000000604482015290519081900360640190fd5b6008805460ff191690557f5db9ee0a495bf2e6ff9c91a7834c1ba4fdd244a5e8aa4e537bd38aeae4b073aa61130f612a72565b604080516001600160a01b039092168252519081900360200190a1565b6001600160a01b0381166000908152600c60205260409020545b919050565b61135661123f612a72565b61139457604051600160e51b62461bcd0281526004018080602001828103825260408152602001806135846040913960400191505060405180910390fd5b6113a561139f612a72565b82612a76565b50565b6000806000806113b78561187a565b92506113c285610c4a565b91506113cd8561132c565b90506113ef816113e3858563ffffffff61275f16565b9063ffffffff61275f16565b93509193509193565b611408611403612a72565b612b75565b565b600061141761123f612a72565b61145557604051600160e51b62461bcd0281526004018080602001828103825260408152602001806135846040913960400191505060405180910390fd5b6001600160a01b0385166114b35760408051600160e51b62461bcd02815260206004820152601860248201527f5a65726f2061646472657373206e6f7420616c6c6f7765640000000000000000604482015290519081900360640190fd5b60408051808201909152601381527f416d6f756e742063616e206e6f7420626520300000000000000000000000000060208201528361157357604051600160e51b62461bcd0281526004018080602001828103825283818151815260200191508051906020019080838360005b83811015611538578181015183820152602001611520565b50505050905090810190601f1680156115655780820380516001836020036101000a031916815260200191505b509250505060405180910390fd5b5061157e8585611823565b60408051808201909152601581527f546f6b656e7320616c7265616479206c6f636b656400000000000000000000006020820152901561160257604051600160e51b62461bcd028152602060048201818152835160248401528351909283926044909101919085019080838360008315611538578181015183820152602001611520565b508261160d3361187a565b1161161757600080fd5b6000611629428463ffffffff61275f16565b6001600160a01b0387166000908152600a60209081526040808320898452909152902054909150611680576001600160a01b0386166000908152600960209081526040822080546001810182559083529120018590555b61168b3330866128ba565b60408051606081018252858152602080820184815260008385018181526001600160a01b038c16808352600a85528683208c8452855291869020945185559151600185015590516002909301805460ff1916931515939093179092558251878152908101849052825188937fea90ef40963535482537f0689e05cb8d259e459ebd21530e826702294d0eafdd928290030190a350600195945050505050565b6001600160a01b0382166000908152600a60209081526040808320848452909152812060010154421080159061178757506001600160a01b0383166000908152600a6020908152604080832085845290915290206002015460ff16155b15610c4457506001600160a01b03919091166000908152600a60209081526040808320938352929052205490565b60006117c261123f612a72565b61180057604051600160e51b62461bcd0281526004018080602001828103825260408152602001806135846040913960400191505060405180910390fd5b506010805460ff1916911515919091179081905560ff1690565b60085460ff1690565b6001600160a01b0382166000908152600a6020908152604080832084845290915281206002015460ff16610c4457506001600160a01b03919091166000908152600a60209081526040808320938352929052205490565b6001600160a01b031660009081526003602052604090205490565b600960205281600052604060002081815481106118ae57fe5b90600052602060002001600091509150505481565b6118ce61123f612a72565b61190c57604051600160e51b62461bcd0281526004018080602001828103825260408152602001806135846040913960400191505060405180910390fd5b6113a581612c8b565b61192061123f612a72565b61195e57604051600160e51b62461bcd0281526004018080602001828103825260408152602001806135846040913960400191505060405180910390fd5b6119688282612cf3565b5050565b6000805b6007548110156119b5576007818154811061198757fe5b6000918252602090912001546001600160a01b03848116911614156119ad579050611346565b600101611970565b50600092915050565b6001600160a01b031660009081526009602052604090205490565b6119e461123f612a72565b611a2257604051600160e51b62461bcd0281526004018080602001828103825260408152602001806135846040913960400191505060405180910390fd5b60085460ff1615611a7d5760408051600160e51b62461bcd02815260206004820152601060248201527f5061757361626c653a2070617573656400000000000000000000000000000000604482015290519081900360640190fd5b6008805460ff191660011790557f62e78cea01bee320cd4e420270b5ea74000d11b0c9f74754ebdbfc544b05a25861130f612a72565b60116020908152600092835260408084208252918352918190208054825160026001831615610100026000190190921691909104601f810185900485028201850190935282815292909190830182828015611b4f5780601f10611b2457610100808354040283529160200191611b4f565b820191906000526020600020905b815481529060010190602001808311611b3257829003601f168201915b505050505081565b60105460ff16611bb15760408051600160e51b62461bcd02815260206004820152601160248201527f7374616b652069732064697361626c6564000000000000000000000000000000604482015290519081900360640190fd5b611bb96121c7565b611c0d5760408051600160e51b62461bcd02815260206004820152601c60248201527f49742773206e6f742076616c69642074696d6520746f207374616b6500000000604482015290519081900360640190fd5b336000908152600c6020526040902054811115611c745760408051600160e51b62461bcd02815260206004820152601a60248201527f696e73756666696369656e74207374616b652062616c616e6365000000000000604482015290519081900360640190fd5b336000908152600c6020526040902054611c94908263ffffffff612d4716565b336000908152600c60205260409020819055611cb357611cb333612d89565b611cbe3033836128ba565b604080513381526020810183905281517f0f5bb82176feb1b5e747e28471aa92156a04d9f3ab9f45f28e2d704232b93f75929181900390910190a150565b60018054604080516020601f60026000196101008789161502019095169490940493840181900481028201810190925282815260609390929091830182828015610bce5780601f10610ba357610100808354040283529160200191610bce565b60085460009060ff1615611dba5760408051600160e51b62461bcd02815260206004820152601060248201527f5061757361626c653a2070617573656400000000000000000000000000000000604482015290519081900360640190fd5b610c418383612e45565b60085460009060ff1615611e225760408051600160e51b62461bcd02815260206004820152601060248201527f5061757361626c653a2070617573656400000000000000000000000000000000604482015290519081900360640190fd5b610c418383612eb3565b6000805b6001600160a01b038316600090815260096020526040902054811015610ccc57611e87610cb58460096000876001600160a01b03166001600160a01b0316815260200190815260200160002084815481106110a557fe5b9150600101611e30565b6000610c4460068363ffffffff612ec716565b600080805b600b54811015611f0357611ef9600c6000600b8481548110611ec757fe5b60009182526020808320909101546001600160a01b03168352820192909252604001902054839063ffffffff61275f16565b9150600101611ea9565b50905090565b600080600f54421015611f3757600f549150611f30600e548361275f90919063ffffffff16565b9050611fdd565b6000611f60600d54611f54600f5442612d4790919063ffffffff16565b9063ffffffff612f3116565b9050611f6a6121c7565b15611f9c57600d54611f9590611f86908363ffffffff612f7316565b600f549063ffffffff61275f16565b9250611fc5565b611fc2611f86611fb383600163ffffffff61275f16565b600d549063ffffffff612f7316565b92505b600e54611fd990849063ffffffff61275f16565b9150505b9091565b6000611fee61123f612a72565b61202c57604051600160e51b62461bcd0281526004018080602001828103825260408152602001806135846040913960400191505060405180910390fd5b6001600160a01b03841661208a5760408051600160e51b62461bcd02815260206004820152601860248201527f5a65726f2061646472657373206e6f7420616c6c6f7765640000000000000000604482015290519081900360640190fd5b60006120968585611823565b116040518060400160405280601081526020017f4e6f20746f6b656e73206c6f636b6564000000000000000000000000000000008152509061211c57604051600160e51b62461bcd028152602060048201818152835160248401528351909283926044909101919085019080838360008315611538578181015183820152602001611520565b506121283330846128ba565b6001600160a01b0384166000908152600a6020908152604080832086845290915290205461215c908363ffffffff61275f16565b6001600160a01b0385166000818152600a6020908152604080832088845282529182902084815560010154825194855290840152805186937fea90ef40963535482537f0689e05cb8d259e459ebd21530e826702294d0eafdd92908290030190a35060019392505050565b60105460009060ff1615806121dd5750600f5442105b156121ea57506000610bd6565b6000612213600d54612207600f5442612d4790919063ffffffff16565b9063ffffffff612fcf16565b600e541192915050565b60008061222b61123f612a72565b61226957604051600160e51b62461bcd0281526004018080602001828103825260408152602001806135846040913960400191505060405180910390fd5b600f849055600e8390556010805460ff191660011790819055604080518681526020810186905260ff92909216151582820152517f8e2430034de5419dd837a69bd04731b274890a4f81e2941aa4214fb860e5184e9181900360600190a16122cf611f09565b915091509250929050565b600a60209081526000928352604080842090915290825290208054600182015460029092015490919060ff1683565b606061231661123f612a72565b61235457604051600160e51b62461bcd0281526004018080602001828103825260408152602001806135846040913960400191505060405180910390fd5b6007805480602002602001604051908101604052809291908181526020018280548015610bce57602002820191906000526020600020905b81546001600160a01b0316815260019091019060200180831161238c575050505050905090565b6001600160a01b03918216600090815260046020908152604080832093909416825291909152205490565b60006123eb61123f612a72565b61242957604051600160e51b62461bcd0281526004018080602001828103825260408152602001806135846040913960400191505060405180910390fd5b6001600160a01b0384166124875760408051600160e51b62461bcd02815260206004820152601860248201527f5a65726f2061646472657373206e6f7420616c6c6f7765640000000000000000604482015290519081900360640190fd5b60006124938585611823565b116040518060400160405280601081526020017f4e6f20746f6b656e73206c6f636b6564000000000000000000000000000000008152509061251957604051600160e51b62461bcd028152602060048201818152835160248401528351909283926044909101919085019080838360008315611538578181015183820152602001611520565b506001600160a01b0384166000908152600a60209081526040808320868452909152902060010154612551908363ffffffff61275f16565b6001600160a01b0385166000818152600a602090815260408083208884528252918290206001810185905554825190815290810193909352805186937fea90ef40963535482537f0689e05cb8d259e459ebd21530e826702294d0eafdd92908290030190a35060019392505050565b6001600160a01b039091166000908152600a60209081526040808320938352929052206001015490565b6060600b805480602002602001604051908101604052809291908181526020018280548015610bce576020028201919060005260206000209081546001600160a01b0316815260019091019060200180831161238c575050505050905090565b600080805b600b5481101561269857600b818154811061266657fe5b6000918252602090912001546001600160a01b0385811691161415612690576001925090506126a1565b60010161264f565b50600091508190505b915091565b60006126b28484611dc4565b6127065760408051600160e51b62461bcd02815260206004820152601560248201527f546f6b656e207472616e73666572206661696c65640000000000000000000000604482015290519081900360640190fd5b6001600160a01b038416600090815260116020908152604080832043845282529091208351612737928501906133ab565b506001949350505050565b600061275661274f612a72565b8484613011565b50600192915050565b600082820183811015610c415760408051600160e51b62461bcd02815260206004820152601b60248201527f536166654d6174683a206164646974696f6e206f766572666c6f770000000000604482015290519081900360640190fd5b60006127c78261264a565b5090508061196857600b80546001810182556000919091527f0175b7a638427703f0dbe7bb9bbf987a2551717b34e79f33b5b1008d1fa01db90180546001600160a01b03841673ffffffffffffffffffffffffffffffffffffffff199091161790555050565b600061283a8484846128ba565b6128b084612846612a72565b6128ab8560405180606001604052806028815260200161353a602891396001600160a01b038a16600090815260046020526040812090612884612a72565b6001600160a01b03168152602081019190915260400160002054919063ffffffff61310316565b613011565b5060019392505050565b6001600160a01b03831661290257604051600160e51b62461bcd0281526004018080602001828103825260258152602001806136096025913960400191505060405180910390fd5b6001600160a01b03821661294a57604051600160e51b62461bcd0281526004018080602001828103825260238152602001806134446023913960400191505060405180910390fd5b61298d816040518060600160405280602681526020016134d2602691396001600160a01b038616600090815260036020526040902054919063ffffffff61310316565b6001600160a01b0380851660009081526003602052604080822093909355908416815220546129c2908263ffffffff61275f16565b6001600160a01b0380841660008181526003602090815260409182902094909455805185815290519193928716927fddf252ad1be2c89b69c2b068fc378daa952ba7f163c4a11628f55a4df523b3ef92918290030190a3505050565b6000612756612a2b612a72565b846128ab8560046000612a3c612a72565b6001600160a01b03908116825260208083019390935260409182016000908120918c16815292529020549063ffffffff61275f16565b3390565b6001600160a01b038216612abe57604051600160e51b62461bcd0281526004018080602001828103825260218152602001806135e86021913960400191505060405180910390fd5b612b018160405180606001604052806022815260200161348e602291396001600160a01b038516600090815260036020526040902054919063ffffffff61310316565b6001600160a01b038316600090815260036020526040902055600554612b2d908263ffffffff612d4716565b6005556040805182815290516000916001600160a01b038516917fddf252ad1be2c89b69c2b068fc378daa952ba7f163c4a11628f55a4df523b3ef9181900360200190a35050565b600754600110612bcf5760408051600160e51b62461bcd02815260206004820152601060248201527f4174206c6561736520312041646d696e00000000000000000000000000000000604482015290519081900360640190fd5b612bd881613160565b6000612be38261196c565b60078054919250906000198101908110612bf957fe5b600091825260209091200154600780546001600160a01b039092169183908110612c1f57fe5b9060005260206000200160006101000a8154816001600160a01b0302191690836001600160a01b031602179055506007805480612c5857fe5b6000828152602090208101600019908101805473ffffffffffffffffffffffffffffffffffffffff191690550190555050565b612c94816131a8565b600780546001810182556000919091527fa66cc928b5edb82af9bd49922954155ab7b0942694bea4ce44661d9a8736c68801805473ffffffffffffffffffffffffffffffffffffffff19166001600160a01b0392909216919091179055565b612cfd8282612a76565b61196882612d09612a72565b6128ab846040518060600160405280602481526020016135c4602491396001600160a01b038816600090815260046020526040812090612884612a72565b6000610c4183836040518060400160405280601e81526020017f536166654d6174683a207375627472616374696f6e206f766572666c6f770000815250613103565b600080612d958361264a565b915091508115612e4057600b80546000198101908110612db157fe5b600091825260209091200154600b80546001600160a01b039092169183908110612dd757fe5b9060005260206000200160006101000a8154816001600160a01b0302191690836001600160a01b03160217905550600b805480612e1057fe5b6000828152602090208101600019908101805473ffffffffffffffffffffffffffffffffffffffff191690550190555b505050565b6000612756612e52612a72565b846128ab856040518060600160405280602581526020016136526025913960046000612e7c612a72565b6001600160a01b03908116825260208083019390935260409182016000908120918d1681529252902054919063ffffffff61310316565b6000612756612ec0612a72565b84846128ba565b60006001600160a01b038216612f1157604051600160e51b62461bcd0281526004018080602001828103825260228152602001806135626022913960400191505060405180910390fd5b506001600160a01b03166000908152602091909152604090205460ff1690565b6000610c4183836040518060400160405280601a81526020017f536166654d6174683a206469766973696f6e206279207a65726f0000000000008152506131f0565b600082612f8257506000610c44565b82820282848281612f8f57fe5b0414610c4157604051600160e51b62461bcd0281526004018080602001828103825260218152602001806135196021913960400191505060405180910390fd5b6000610c4183836040518060400160405280601881526020017f536166654d6174683a206d6f64756c6f206279207a65726f0000000000000000815250613258565b6001600160a01b03831661305957604051600160e51b62461bcd02815260040180806020018281038252602481526020018061362e6024913960400191505060405180910390fd5b6001600160a01b0382166130a157604051600160e51b62461bcd0281526004018080602001828103825260228152602001806134b06022913960400191505060405180910390fd5b6001600160a01b03808416600081815260046020908152604080832094871680845294825291829020859055815185815291517f8c5be1e5ebec7d5bd14f71427d1e84f3dd0314c0f7b2291e5b200ac8c7c3b9259281900390910190a3505050565b6000818484111561315857604051600160e51b62461bcd028152602060048201818152835160248401528351909283926044909101919085019080838360008315611538578181015183820152602001611520565b505050900390565b61317160068263ffffffff6132bd16565b6040516001600160a01b038216907f0a8eb35e5ca14b3d6f28e4abf2f128dbab231a58b56e89beb5d636115001e16590600090a250565b6131b960068263ffffffff61332716565b6040516001600160a01b038216907f22380c05984257a1cb900161c713dd71d39e74820f1aea43bd3f1bdd2096129990600090a250565b6000818361324257604051600160e51b62461bcd028152602060048201818152835160248401528351909283926044909101919085019080838360008315611538578181015183820152602001611520565b50600083858161324e57fe5b0495945050505050565b600081836132aa57604051600160e51b62461bcd028152602060048201818152835160248401528351909283926044909101919085019080838360008315611538578181015183820152602001611520565b508284816132b457fe5b06949350505050565b6132c78282612ec7565b61330557604051600160e51b62461bcd0281526004018080602001828103825260218152602001806134f86021913960400191505060405180910390fd5b6001600160a01b0316600090815260209190915260409020805460ff19169055565b6133318282612ec7565b156133865760408051600160e51b62461bcd02815260206004820152601f60248201527f526f6c65733a206163636f756e7420616c72656164792068617320726f6c6500604482015290519081900360640190fd5b6001600160a01b0316600090815260209190915260409020805460ff19166001179055565b828054600181600116156101000203166002900490600052602060002090601f016020900481019282601f106133ec57805160ff1916838001178555613419565b82800160010185558215613419579182015b828111156134195782518255916020019190600101906133fe565b50613425929150613429565b5090565b610bd691905b80821115613425576000815560010161342f56fe45524332303a207472616e7366657220746f20746865207a65726f2061646472657373746f6b656e732061726520756e6c6f636b61626c65206279206f776e6572206f722061646d696e45524332303a206275726e20616d6f756e7420657863656564732062616c616e636545524332303a20617070726f766520746f20746865207a65726f206164647265737345524332303a207472616e7366657220616d6f756e7420657863656564732062616c616e6365526f6c65733a206163636f756e7420646f6573206e6f74206861766520726f6c65536166654d6174683a206d756c7469706c69636174696f6e206f766572666c6f7745524332303a207472616e7366657220616d6f756e74206578636565647320616c6c6f77616e6365526f6c65733a206163636f756e7420697320746865207a65726f206164647265737357686974656c69737441646d696e526f6c653a2063616c6c657220646f6573206e6f742068617665207468652057686974656c69737441646d696e20726f6c6545524332303a206275726e20616d6f756e74206578636565647320616c6c6f77616e636545524332303a206275726e2066726f6d20746865207a65726f206164647265737345524332303a207472616e736665722066726f6d20746865207a65726f206164647265737345524332303a20617070726f76652066726f6d20746865207a65726f206164647265737345524332303a2064656372656173656420616c6c6f77616e63652062656c6f77207a65726fa165627a7a72305820315deb869f23d501cf080e6dd252c0ba4ce1371191e3ed68d86404c56c3fdc3b0029526f6c65733a206163636f756e7420697320746865207a65726f2061646472657373696e697469616c537570706c79206d7573742062652067726561746572207468616e207a65726f2e",
  "source": "\n// File: @openzeppelin/contracts/token/ERC20/IERC20.sol\n\npragma solidity ^0.5.0;\n\n/**\n * @dev Interface of the ERC20 standard as defined in the EIP. Does not include\n * the optional functions; to access them see {ERC20Detailed}.\n */\ninterface IERC20 {\n    /**\n     * @dev Returns the amount of tokens in existence.\n     */\n    function totalSupply() external view returns (uint256);\n\n    /**\n     * @dev Returns the amount of tokens owned by `account`.\n     */\n    function balanceOf(address account) external view returns (uint256);\n\n    /**\n     * @dev Moves `amount` tokens from the caller's account to `recipient`.\n     *\n     * Returns a boolean value indicating whether the operation succeeded.\n     *\n     * Emits a {Transfer} event.\n     */\n    function transfer(address recipient, uint256 amount) external returns (bool);\n\n    /**\n     * @dev Returns the remaining number of tokens that `spender` will be\n     * allowed to spend on behalf of `owner` through {transferFrom}. This is\n     * zero by default.\n     *\n     * This value changes when {approve} or {transferFrom} are called.\n     */\n    function allowance(address owner, address spender) external view returns (uint256);\n\n    /**\n     * @dev Sets `amount` as the allowance of `spender` over the caller's tokens.\n     *\n     * Returns a boolean value indicating whether the operation succeeded.\n     *\n     * IMPORTANT: Beware that changing an allowance with this method brings the risk\n     * that someone may use both the old and the new allowance by unfortunate\n     * transaction ordering. One possible solution to mitigate this race\n     * condition is to first reduce the spender's allowance to 0 and set the\n     * desired value afterwards:\n     * https://github.com/ethereum/EIPs/issues/20#issuecomment-263524729\n     *\n     * Emits an {Approval} event.\n     */\n    function approve(address spender, uint256 amount) external returns (bool);\n\n    /**\n     * @dev Moves `amount` tokens from `sender` to `recipient` using the\n     * allowance mechanism. `amount` is then deducted from the caller's\n     * allowance.\n     *\n     * Returns a boolean value indicating whether the operation succeeded.\n     *\n     * Emits a {Transfer} event.\n     */\n    function transferFrom(address sender, address recipient, uint256 amount) external returns (bool);\n\n    /**\n     * @dev Emitted when `value` tokens are moved from one account (`from`) to\n     * another (`to`).\n     *\n     * Note that `value` may be zero.\n     */\n    event Transfer(address indexed from, address indexed to, uint256 value);\n\n    /**\n     * @dev Emitted when the allowance of a `spender` for an `owner` is set by\n     * a call to {approve}. `value` is the new allowance.\n     */\n    event Approval(address indexed owner, address indexed spender, uint256 value);\n}\n\n// File: @openzeppelin/contracts/token/ERC20/ERC20Detailed.sol\n\npragma solidity ^0.5.0;\n\n\n/**\n * @dev Optional functions from the ERC20 standard.\n */\ncontract ERC20Detailed is IERC20 {\n    string private _name;\n    string private _symbol;\n    uint8 private _decimals;\n\n    /**\n     * @dev Sets the values for `name`, `symbol`, and `decimals`. All three of\n     * these values are immutable: they can only be set once during\n     * construction.\n     */\n    constructor (string memory name, string memory symbol, uint8 decimals) public {\n        _name = name;\n        _symbol = symbol;\n        _decimals = decimals;\n    }\n\n    /**\n     * @dev Returns the name of the token.\n     */\n    function name() public view returns (string memory) {\n        return _name;\n    }\n\n    /**\n     * @dev Returns the symbol of the token, usually a shorter version of the\n     * name.\n     */\n    function symbol() public view returns (string memory) {\n        return _symbol;\n    }\n\n    /**\n     * @dev Returns the number of decimals used to get its user representation.\n     * For example, if `decimals` equals `2`, a balance of `505` tokens should\n     * be displayed to a user as `5,05` (`505 / 10 ** 2`).\n     *\n     * Tokens usually opt for a value of 18, imitating the relationship between\n     * Ether and Wei.\n     *\n     * NOTE: This information is only used for _display_ purposes: it in\n     * no way affects any of the arithmetic of the contract, including\n     * {IERC20-balanceOf} and {IERC20-transfer}.\n     */\n    function decimals() public view returns (uint8) {\n        return _decimals;\n    }\n}\n\n// File: @openzeppelin/contracts/GSN/Context.sol\n\npragma solidity ^0.5.0;\n\n/*\n * @dev Provides information about the current execution context, including the\n * sender of the transaction and its data. While these are generally available\n * via msg.sender and msg.data, they not should not be accessed in such a direct\n * manner, since when dealing with GSN meta-transactions the account sending and\n * paying for execution may not be the actual sender (as far as an application\n * is concerned).\n *\n * This contract is only required for intermediate, library-like contracts.\n */\ncontract Context {\n    // Empty internal constructor, to prevent people from mistakenly deploying\n    // an instance of this contract, with should be used via inheritance.\n    constructor () internal { }\n    // solhint-disable-previous-line no-empty-blocks\n\n    function _msgSender() internal view returns (address) {\n        return msg.sender;\n    }\n\n    function _msgData() internal view returns (bytes memory) {\n        this; // silence state mutability warning without generating bytecode - see https://github.com/ethereum/solidity/issues/2691\n        return msg.data;\n    }\n}\n\n// File: @openzeppelin/contracts/math/SafeMath.sol\n\npragma solidity ^0.5.0;\n\n/**\n * @dev Wrappers over Solidity's arithmetic operations with added overflow\n * checks.\n *\n * Arithmetic operations in Solidity wrap on overflow. This can easily result\n * in bugs, because programmers usually assume that an overflow raises an\n * error, which is the standard behavior in high level programming languages.\n * `SafeMath` restores this intuition by reverting the transaction when an\n * operation overflows.\n *\n * Using this library instead of the unchecked operations eliminates an entire\n * class of bugs, so it's recommended to use it always.\n */\nlibrary SafeMath {\n    /**\n     * @dev Returns the addition of two unsigned integers, reverting on\n     * overflow.\n     *\n     * Counterpart to Solidity's `+` operator.\n     *\n     * Requirements:\n     * - Addition cannot overflow.\n     */\n    function add(uint256 a, uint256 b) internal pure returns (uint256) {\n        uint256 c = a + b;\n        require(c >= a, \"SafeMath: addition overflow\");\n\n        return c;\n    }\n\n    /**\n     * @dev Returns the subtraction of two unsigned integers, reverting on\n     * overflow (when the result is negative).\n     *\n     * Counterpart to Solidity's `-` operator.\n     *\n     * Requirements:\n     * - Subtraction cannot overflow.\n     */\n    function sub(uint256 a, uint256 b) internal pure returns (uint256) {\n        return sub(a, b, \"SafeMath: subtraction overflow\");\n    }\n\n    /**\n     * @dev Returns the subtraction of two unsigned integers, reverting with custom message on\n     * overflow (when the result is negative).\n     *\n     * Counterpart to Solidity's `-` operator.\n     *\n     * Requirements:\n     * - Subtraction cannot overflow.\n     *\n     * NOTE: This is a feature of the next version of OpenZeppelin Contracts.\n     * @dev Get it via `npm install @openzeppelin/contracts@next`.\n     */\n    function sub(uint256 a, uint256 b, string memory errorMessage) internal pure returns (uint256) {\n        require(b <= a, errorMessage);\n        uint256 c = a - b;\n\n        return c;\n    }\n\n    /**\n     * @dev Returns the multiplication of two unsigned integers, reverting on\n     * overflow.\n     *\n     * Counterpart to Solidity's `*` operator.\n     *\n     * Requirements:\n     * - Multiplication cannot overflow.\n     */\n    function mul(uint256 a, uint256 b) internal pure returns (uint256) {\n        // Gas optimization: this is cheaper than requiring 'a' not being zero, but the\n        // benefit is lost if 'b' is also tested.\n        // See: https://github.com/OpenZeppelin/openzeppelin-contracts/pull/522\n        if (a == 0) {\n            return 0;\n        }\n\n        uint256 c = a * b;\n        require(c / a == b, \"SafeMath: multiplication overflow\");\n\n        return c;\n    }\n\n    /**\n     * @dev Returns the integer division of two unsigned integers. Reverts on\n     * division by zero. The result is rounded towards zero.\n     *\n     * Counterpart to Solidity's `/` operator. Note: this function uses a\n     * `revert` opcode (which leaves remaining gas untouched) while Solidity\n     * uses an invalid opcode to revert (consuming all remaining gas).\n     *\n     * Requirements:\n     * - The divisor cannot be zero.\n     */\n    function div(uint256 a, uint256 b) internal pure returns (uint256) {\n        return div(a, b, \"SafeMath: division by zero\");\n    }\n\n    /**\n     * @dev Returns the integer division of two unsigned integers. Reverts with custom message on\n     * division by zero. The result is rounded towards zero.\n     *\n     * Counterpart to Solidity's `/` operator. Note: this function uses a\n     * `revert` opcode (which leaves remaining gas untouched) while Solidity\n     * uses an invalid opcode to revert (consuming all remaining gas).\n     *\n     * Requirements:\n     * - The divisor cannot be zero.\n\n     * NOTE: This is a feature of the next version of OpenZeppelin Contracts.\n     * @dev Get it via `npm install @openzeppelin/contracts@next`.\n     */\n    function div(uint256 a, uint256 b, string memory errorMessage) internal pure returns (uint256) {\n        // Solidity only automatically asserts when dividing by 0\n        require(b > 0, errorMessage);\n        uint256 c = a / b;\n        // assert(a == b * c + a % b); // There is no case in which this doesn't hold\n\n        return c;\n    }\n\n    /**\n     * @dev Returns the remainder of dividing two unsigned integers. (unsigned integer modulo),\n     * Reverts when dividing by zero.\n     *\n     * Counterpart to Solidity's `%` operator. This function uses a `revert`\n     * opcode (which leaves remaining gas untouched) while Solidity uses an\n     * invalid opcode to revert (consuming all remaining gas).\n     *\n     * Requirements:\n     * - The divisor cannot be zero.\n     */\n    function mod(uint256 a, uint256 b) internal pure returns (uint256) {\n        return mod(a, b, \"SafeMath: modulo by zero\");\n    }\n\n    /**\n     * @dev Returns the remainder of dividing two unsigned integers. (unsigned integer modulo),\n     * Reverts with custom message when dividing by zero.\n     *\n     * Counterpart to Solidity's `%` operator. This function uses a `revert`\n     * opcode (which leaves remaining gas untouched) while Solidity uses an\n     * invalid opcode to revert (consuming all remaining gas).\n     *\n     * Requirements:\n     * - The divisor cannot be zero.\n     *\n     * NOTE: This is a feature of the next version of OpenZeppelin Contracts.\n     * @dev Get it via `npm install @openzeppelin/contracts@next`.\n     */\n    function mod(uint256 a, uint256 b, string memory errorMessage) internal pure returns (uint256) {\n        require(b != 0, errorMessage);\n        return a % b;\n    }\n}\n\n// File: @openzeppelin/contracts/token/ERC20/ERC20.sol\n\npragma solidity ^0.5.0;\n\n\n\n\n/**\n * @dev Implementation of the {IERC20} interface.\n *\n * This implementation is agnostic to the way tokens are created. This means\n * that a supply mechanism has to be added in a derived contract using {_mint}.\n * For a generic mechanism see {ERC20Mintable}.\n *\n * TIP: For a detailed writeup see our guide\n * https://forum.zeppelin.solutions/t/how-to-implement-erc20-supply-mechanisms/226[How\n * to implement supply mechanisms].\n *\n * We have followed general OpenZeppelin guidelines: functions revert instead\n * of returning `false` on failure. This behavior is nonetheless conventional\n * and does not conflict with the expectations of ERC20 applications.\n *\n * Additionally, an {Approval} event is emitted on calls to {transferFrom}.\n * This allows applications to reconstruct the allowance for all accounts just\n * by listening to said events. Other implementations of the EIP may not emit\n * these events, as it isn't required by the specification.\n *\n * Finally, the non-standard {decreaseAllowance} and {increaseAllowance}\n * functions have been added to mitigate the well-known issues around setting\n * allowances. See {IERC20-approve}.\n */\ncontract ERC20 is Context, IERC20 {\n    using SafeMath for uint256;\n\n    mapping (address => uint256) private _balances;\n\n    mapping (address => mapping (address => uint256)) private _allowances;\n\n    uint256 private _totalSupply;\n\n    /**\n     * @dev See {IERC20-totalSupply}.\n     */\n    function totalSupply() public view returns (uint256) {\n        return _totalSupply;\n    }\n\n    /**\n     * @dev See {IERC20-balanceOf}.\n     */\n    function balanceOf(address account) public view returns (uint256) {\n        return _balances[account];\n    }\n\n    /**\n     * @dev See {IERC20-transfer}.\n     *\n     * Requirements:\n     *\n     * - `recipient` cannot be the zero address.\n     * - the caller must have a balance of at least `amount`.\n     */\n    function transfer(address recipient, uint256 amount) public returns (bool) {\n        _transfer(_msgSender(), recipient, amount);\n        return true;\n    }\n\n    /**\n     * @dev See {IERC20-allowance}.\n     */\n    function allowance(address owner, address spender) public view returns (uint256) {\n        return _allowances[owner][spender];\n    }\n\n    /**\n     * @dev See {IERC20-approve}.\n     *\n     * Requirements:\n     *\n     * - `spender` cannot be the zero address.\n     */\n    function approve(address spender, uint256 value) public returns (bool) {\n        _approve(_msgSender(), spender, value);\n        return true;\n    }\n\n    /**\n     * @dev See {IERC20-transferFrom}.\n     *\n     * Emits an {Approval} event indicating the updated allowance. This is not\n     * required by the EIP. See the note at the beginning of {ERC20};\n     *\n     * Requirements:\n     * - `sender` and `recipient` cannot be the zero address.\n     * - `sender` must have a balance of at least `value`.\n     * - the caller must have allowance for `sender`'s tokens of at least\n     * `amount`.\n     */\n    function transferFrom(address sender, address recipient, uint256 amount) public returns (bool) {\n        _transfer(sender, recipient, amount);\n        _approve(sender, _msgSender(), _allowances[sender][_msgSender()].sub(amount, \"ERC20: transfer amount exceeds allowance\"));\n        return true;\n    }\n\n    /**\n     * @dev Atomically increases the allowance granted to `spender` by the caller.\n     *\n     * This is an alternative to {approve} that can be used as a mitigation for\n     * problems described in {IERC20-approve}.\n     *\n     * Emits an {Approval} event indicating the updated allowance.\n     *\n     * Requirements:\n     *\n     * - `spender` cannot be the zero address.\n     */\n    function increaseAllowance(address spender, uint256 addedValue) public returns (bool) {\n        _approve(_msgSender(), spender, _allowances[_msgSender()][spender].add(addedValue));\n        return true;\n    }\n\n    /**\n     * @dev Atomically decreases the allowance granted to `spender` by the caller.\n     *\n     * This is an alternative to {approve} that can be used as a mitigation for\n     * problems described in {IERC20-approve}.\n     *\n     * Emits an {Approval} event indicating the updated allowance.\n     *\n     * Requirements:\n     *\n     * - `spender` cannot be the zero address.\n     * - `spender` must have allowance for the caller of at least\n     * `subtractedValue`.\n     */\n    function decreaseAllowance(address spender, uint256 subtractedValue) public returns (bool) {\n        _approve(_msgSender(), spender, _allowances[_msgSender()][spender].sub(subtractedValue, \"ERC20: decreased allowance below zero\"));\n        return true;\n    }\n\n    /**\n     * @dev Moves tokens `amount` from `sender` to `recipient`.\n     *\n     * This is internal function is equivalent to {transfer}, and can be used to\n     * e.g. implement automatic token fees, slashing mechanisms, etc.\n     *\n     * Emits a {Transfer} event.\n     *\n     * Requirements:\n     *\n     * - `sender` cannot be the zero address.\n     * - `recipient` cannot be the zero address.\n     * - `sender` must have a balance of at least `amount`.\n     */\n    function _transfer(address sender, address recipient, uint256 amount) internal {\n        require(sender != address(0), \"ERC20: transfer from the zero address\");\n        require(recipient != address(0), \"ERC20: transfer to the zero address\");\n\n        _balances[sender] = _balances[sender].sub(amount, \"ERC20: transfer amount exceeds balance\");\n        _balances[recipient] = _balances[recipient].add(amount);\n        emit Transfer(sender, recipient, amount);\n    }\n\n    /** @dev Creates `amount` tokens and assigns them to `account`, increasing\n     * the total supply.\n     *\n     * Emits a {Transfer} event with `from` set to the zero address.\n     *\n     * Requirements\n     *\n     * - `to` cannot be the zero address.\n     */\n    function _mint(address account, uint256 amount) internal {\n        require(account != address(0), \"ERC20: mint to the zero address\");\n\n        _totalSupply = _totalSupply.add(amount);\n        _balances[account] = _balances[account].add(amount);\n        emit Transfer(address(0), account, amount);\n    }\n\n     /**\n     * @dev Destroys `amount` tokens from `account`, reducing the\n     * total supply.\n     *\n     * Emits a {Transfer} event with `to` set to the zero address.\n     *\n     * Requirements\n     *\n     * - `account` cannot be the zero address.\n     * - `account` must have at least `amount` tokens.\n     */\n    function _burn(address account, uint256 value) internal {\n        require(account != address(0), \"ERC20: burn from the zero address\");\n\n        _balances[account] = _balances[account].sub(value, \"ERC20: burn amount exceeds balance\");\n        _totalSupply = _totalSupply.sub(value);\n        emit Transfer(account, address(0), value);\n    }\n\n    /**\n     * @dev Sets `amount` as the allowance of `spender` over the `owner`s tokens.\n     *\n     * This is internal function is equivalent to `approve`, and can be used to\n     * e.g. set automatic allowances for certain subsystems, etc.\n     *\n     * Emits an {Approval} event.\n     *\n     * Requirements:\n     *\n     * - `owner` cannot be the zero address.\n     * - `spender` cannot be the zero address.\n     */\n    function _approve(address owner, address spender, uint256 value) internal {\n        require(owner != address(0), \"ERC20: approve from the zero address\");\n        require(spender != address(0), \"ERC20: approve to the zero address\");\n\n        _allowances[owner][spender] = value;\n        emit Approval(owner, spender, value);\n    }\n\n    /**\n     * @dev Destroys `amount` tokens from `account`.`amount` is then deducted\n     * from the caller's allowance.\n     *\n     * See {_burn} and {_approve}.\n     */\n    function _burnFrom(address account, uint256 amount) internal {\n        _burn(account, amount);\n        _approve(account, _msgSender(), _allowances[account][_msgSender()].sub(amount, \"ERC20: burn amount exceeds allowance\"));\n    }\n}\n\n// File: @openzeppelin/contracts/access/Roles.sol\n\npragma solidity ^0.5.0;\n\n/**\n * @title Roles\n * @dev Library for managing addresses assigned to a Role.\n */\nlibrary Roles {\n    struct Role {\n        mapping (address => bool) bearer;\n    }\n\n    /**\n     * @dev Give an account access to this role.\n     */\n    function add(Role storage role, address account) internal {\n        require(!has(role, account), \"Roles: account already has role\");\n        role.bearer[account] = true;\n    }\n\n    /**\n     * @dev Remove an account's access to this role.\n     */\n    function remove(Role storage role, address account) internal {\n        require(has(role, account), \"Roles: account does not have role\");\n        role.bearer[account] = false;\n    }\n\n    /**\n     * @dev Check if an account has this role.\n     * @return bool\n     */\n    function has(Role storage role, address account) internal view returns (bool) {\n        require(account != address(0), \"Roles: account is the zero address\");\n        return role.bearer[account];\n    }\n}\n\n// File: @openzeppelin/contracts/access/roles/WhitelistAdminRole.sol\n\npragma solidity ^0.5.0;\n\n\n\n/**\n * @title WhitelistAdminRole\n * @dev WhitelistAdmins are responsible for assigning and removing Whitelisted accounts.\n */\ncontract WhitelistAdminRole is Context {\n    using Roles for Roles.Role;\n\n    event WhitelistAdminAdded(address indexed account);\n    event WhitelistAdminRemoved(address indexed account);\n\n    Roles.Role private _whitelistAdmins;\n\n    constructor () internal {\n        _addWhitelistAdmin(_msgSender());\n    }\n\n    modifier onlyWhitelistAdmin() {\n        require(isWhitelistAdmin(_msgSender()), \"WhitelistAdminRole: caller does not have the WhitelistAdmin role\");\n        _;\n    }\n\n    function isWhitelistAdmin(address account) public view returns (bool) {\n        return _whitelistAdmins.has(account);\n    }\n\n    function addWhitelistAdmin(address account) public onlyWhitelistAdmin {\n        _addWhitelistAdmin(account);\n    }\n\n    function renounceWhitelistAdmin() public {\n        _removeWhitelistAdmin(_msgSender());\n    }\n\n    function _addWhitelistAdmin(address account) internal {\n        _whitelistAdmins.add(account);\n        emit WhitelistAdminAdded(account);\n    }\n\n    function _removeWhitelistAdmin(address account) internal {\n        _whitelistAdmins.remove(account);\n        emit WhitelistAdminRemoved(account);\n    }\n}\n\n// File: contracts/roles/AdminRole.sol\n\npragma solidity ^0.5.6;\n\n\ncontract AdminRole is WhitelistAdminRole {\n\n  address[] private _adminList;\n\n  function _addWhitelistAdmin(address account) internal {\n    super._addWhitelistAdmin(account);\n    _adminList.push(account);\n  }\n\n  function _removeWhitelistAdmin(address account) internal {\n    require(_adminList.length > 1, \"At lease 1 Admin\");\n    super._removeWhitelistAdmin(account);\n    uint256 s = getIndexOfAdmin(account);\n    _adminList[s] = _adminList[_adminList.length - 1];\n    _adminList.pop();\n  }\n\n  function getIndexOfAdmin(address account) public view returns(uint256) {\n    uint256 s = 0;\n    for (s; s < _adminList.length; s += 1) {\n      if (account == _adminList[s])\n        return s;\n    }\n    return 0;\n  }\n\n  function getAdminList() public view onlyWhitelistAdmin returns(address[] memory) {\n    return _adminList;\n  }\n}\n\n// File: contracts/token/PausableToken.sol\n\npragma solidity ^0.5.6;\n\n\n\n/**\n * @title Pausable token\n * @dev ERC20 with pausable transfers and allowances.\n *\n * Useful if you want to stop trades until the end of a crowdsale, or have\n * an emergency switch for freezing all token transfers in the event of a large\n * bug.\n */\ncontract PausableToken is ERC20, AdminRole {\n  /**\n  * @dev Emitted when the pause is triggered by a whitelistAdmin (`account`).\n  */\n  event Paused(address account);\n\n  /**\n  * @dev Emitted when the pause is lifted by a whitelistAdmin (`account`).\n  */\n  event Unpaused(address account);\n\n  bool private _paused;\n\n  /**\n  * @dev Initializes the contract in unpaused state. Assigns the whitelistAdmin role\n  * to the deployer.\n  */\n  constructor () internal {\n    _paused = false;\n  }\n\n  /**\n  * @dev Returns true if the contract is paused, and false otherwise.\n  */\n  function paused() public view returns (bool) {\n    return _paused;\n  }\n\n  /**\n  * @dev Modifier to make a function callable only when the contract is not paused.\n  */\n  modifier whenNotPaused() {\n    require(!_paused, \"Pausable: paused\");\n    _;\n  }\n\n  /**\n  * @dev Modifier to make a function callable only when the contract is paused.\n  */\n  modifier whenPaused() {\n    require(_paused, \"Pausable: not paused\");\n    _;\n  }\n\n  /**\n  * @dev Called by a whitelistAdmin to pause, triggers stopped state.\n  */\n  function pause() public onlyWhitelistAdmin whenNotPaused {\n    _paused = true;\n    emit Paused(_msgSender());\n  }\n\n  /**\n  * @dev Called by a whitelistAdmin to unpause, returns to normal state.\n  */\n  function unpause() public onlyWhitelistAdmin whenPaused {\n    _paused = false;\n    emit Unpaused(_msgSender());\n  }\n\n  /**\n  * @dev set modifier is paused to transfer function\n\n  * @param to address\n  * @param value uint256\n  */\n  function transfer(address to, uint256 value) public whenNotPaused returns (bool) {\n    return super.transfer(to, value);\n  }\n\n  /**\n  * @dev set modifier is paused to transferFrom function\n\n  * @param from address\n  * @param to address\n  * @param value uint256\n  */\n  function transferFrom(address from, address to, uint256 value) public whenNotPaused returns (bool) {\n    return super.transferFrom(from, to, value);\n  }\n\n  /**\n  * @dev set modifier is paused to approve function\n\n  * @param spender address\n  * @param value uint256\n  */\n  function approve(address spender, uint256 value) public whenNotPaused returns (bool) {\n    return super.approve(spender, value);\n  }\n\n  /**\n  * @dev set modifier is paused to increaseAllowance function\n\n  * @param spender address\n  * @param addedValue uint256\n  */\n  function increaseAllowance(address spender, uint256 addedValue) public whenNotPaused returns (bool) {\n    return super.increaseAllowance(spender, addedValue);\n  }\n\n  /**\n  * @dev set modifier is paused to decreaseAllowance function\n\n  * @param spender address\n  * @param subtractedValue uint256\n  */\n  function decreaseAllowance(address spender, uint256 subtractedValue) public whenNotPaused returns (bool) {\n    return super.decreaseAllowance(spender, subtractedValue);\n  }\n}\n\n// File: contracts/erc/ERC1132.sol\n\npragma solidity ^0.5.6;\n\n/**\n* @title ERC1132 interface\n* @dev see https://github.com/ethereum/EIPs/issues/1132\n*/\n\ncontract ERC1132 {\n  /**\n  * @dev Reasons why a user's tokens have been locked\n  */\n  mapping(address => bytes32[]) public lockReason;\n\n  /**\n  * @dev locked token structure\n  */\n  struct LockToken {\n    uint256 amount;\n    uint256 validity;\n    bool claimed;\n  }\n\n  /**\n  * @dev Holds number & validity of tokens locked for a given reason for\n  *      a specified address\n  */\n  mapping(address => mapping(bytes32 => LockToken)) public locked;\n\n  /**\n  * @dev Records data of all the tokens Locked\n  */\n  event Locked(\n    address indexed _of,\n    bytes32 indexed _reason,\n    uint256 _amount,\n    uint256 _validity\n  );\n\n  /**\n  * @dev Records data of all the tokens unlocked\n  */\n  event Unlocked(\n    address indexed _of,\n    bytes32 indexed _reason,\n    uint256 _amount\n  );\n\n  // /**\n  //  * @dev Locks a specified amount of tokens against an address,\n  //  *      for a specified reason and time\n  //  * @param _reason The reason to lock tokens\n  //  * @param _amount Number of tokens to be locked\n  //  * @param _time Lock time in seconds\n  //  */\n  // function lock(bytes32 _reason, uint256 _amount, uint256 _time)\n  //     internal returns (bool);\n\n  /**\n  * @dev Returns tokens locked for a specified address for a\n  *      specified reason\n  *\n  * @param _of The address whose tokens are locked\n  * @param _reason The reason to query the lock tokens for\n  */\n  function tokensLocked(address _of, bytes32 _reason)\n    public view returns (uint256 amount);\n\n  /**\n  * @dev Returns tokens locked for a specified address for a\n  *      specified reason at a specific time\n  *\n  * @param _of The address whose tokens are locked\n  * @param _reason The reason to query the lock tokens for\n  * @param _time The timestamp to query the lock tokens for\n  */\n  function tokensLockedAtTime(address _of, bytes32 _reason, uint256 _time)\n    public view returns (uint256 amount);\n\n  /**\n  * @dev Returns tokens validity for a specified address for a specified reason\n  *\n  * @param _of The address whose tokens are locked\n  * @param _reason The reason to query the lock tokens for\n  */\n  function tokensValidity(address _of, bytes32 _reason)\n    public view returns (uint256 validity);\n\n  /**\n  * @dev Returns total tokens held by an address (locked + transferable)\n  * @param _of The address to query the total balance of\n  */\n  function lockBalanceOf(address _of)\n    public view returns (uint256 amount);\n\n  /**\n  * @dev Extends lock for a specified reason and time\n  * @param _to adress to which tokens are to be extended lock\n  * @param _reason The reason to lock tokens\n  * @param _time Lock extension time in seconds\n  */\n  function extendLock(address _to, bytes32 _reason, uint256 _time)\n    public returns (bool);\n\n  /**\n  * @dev Increase number of tokens locked for a specified reason\n  * @param _to adress to which tokens are to be increased\n  * @param _reason The reason to lock tokens\n  * @param _amount Number of tokens to be increased\n  */\n  function increaseLockAmount(address _to, bytes32 _reason, uint256 _amount)\n    public returns (bool);\n\n  /**\n  * @dev Returns unlockable tokens for a specified address for a specified reason\n  * @param _of The address to query the the unlockable token count of\n  * @param _reason The reason to query the unlockable tokens for\n  */\n  function tokensUnlockable(address _of, bytes32 _reason)\n    public view returns (uint256 amount);\n\n  /**\n  * @dev Unlocks the unlockable tokens of a specified address\n  * @param _of Address of user, claiming back unlockable tokens\n  */\n  function unlock(address _of)\n    public returns (uint256 unlockableTokens);\n\n  /**\n  * @dev Gets the unlockable tokens of a specified address\n  * @param _of The address to query the the unlockable token count of\n  */\n  function getUnlockableTokens(address _of)\n    public view returns (uint256 unlockableTokens);\n\n}\n\n// File: contracts/token/LockableToken.sol\n\npragma solidity ^0.5.6;\n\n\n\ncontract LockableToken is PausableToken, ERC1132 {\n\n  /**\n  * @dev Error messages for require statements\n  */\n  string internal constant ALREADY_LOCKED = \"Tokens already locked\";\n  string internal constant NOT_LOCKED = \"No tokens locked\";\n  string internal constant AMOUNT_ZERO = \"Amount can not be 0\";\n\n  /**\n  * @dev is msg.sender or shitelistadmin\n  * @param _address address\n  */\n  modifier isAdminOrSelf(address _address) {\n    require(_address == msg.sender || isWhitelistAdmin(msg.sender), \"tokens are unlockable by owner or admin\");\n    _;\n  }\n\n  /**\n  * @dev Returns tokens locked for a specified address for a specified reason\n  * @param _of The address whose tokens are locked\n  * @param _reason The reason to query the lock tokens for\n  */\n  function tokensLocked(address _of, bytes32 _reason)\n      public\n      view\n      returns (uint256 amount)\n  {\n    if (!locked[_of][_reason].claimed)\n        amount = locked[_of][_reason].amount;\n  }\n\n  /**\n  * @dev Returns tokens locked for a specified address for a\n  *      specified reason at a specific time\n  * @param _of The address whose tokens are locked\n  * @param _reason The reason to query the lock tokens for\n  * @param _time The timestamp to query the lock tokens for\n  */\n  function tokensLockedAtTime(address _of, bytes32 _reason, uint256 _time)\n      public\n      view\n      returns (uint256 amount)\n  {\n    if (locked[_of][_reason].validity > _time)\n        amount = locked[_of][_reason].amount;\n  }\n\n  /**\n  * @dev Returns tokens validity for a specified address for a specified reason\n  * @param _of The address whose tokens are locked\n  * @param _reason The reason to query the lock tokens for\n  */\n  function tokensValidity(address _of, bytes32 _reason)\n      public\n      view\n      returns (uint256 validity)\n  {\n    validity = locked[_of][_reason].validity;\n  }\n\n  /**\n  * @dev Returns total tokens held by an address (locked + transferable)\n  * @param _of The address to query the total balance of\n  */\n  function lockBalanceOf(address _of)\n      public\n      view\n      returns (uint256 amount)\n  {\n    amount = 0;\n    uint256 i = 0;\n    for ( i ; i < lockReason[_of].length; i++) {\n      amount = amount.add(tokensLocked(_of, lockReason[_of][i]));\n    }\n  }\n\n  /**\n  * @dev Returns unlockable tokens for a specified address for a specified reason\n  * @param _of The address to query the the unlockable token count of\n  * @param _reason The reason to query the unlockable tokens for\n  */\n  function tokensUnlockable(address _of, bytes32 _reason)\n      public\n      view\n      returns (uint256 amount)\n  {\n      if (locked[_of][_reason].validity <= now && !locked[_of][_reason].claimed) //solium-disable-line\n          amount = locked[_of][_reason].amount;\n  }\n\n  /**\n  * @dev Unlocks the unlockable tokens of a specified address\n  * @param _of Address of user, claiming back unlockable tokens\n  */\n  function unlock(address _of)\n      public\n      isAdminOrSelf(_of)\n      returns (uint256 unlockableTokens)\n  {\n    uint256 lockedTokens;\n    uint256 i = 0;\n    for ( i ; i < lockReason[_of].length; i++) {\n      lockedTokens = tokensUnlockable(_of, lockReason[_of][i]);\n      if (lockedTokens > 0) {\n        unlockableTokens = unlockableTokens.add(lockedTokens);\n        locked[_of][lockReason[_of][i]].claimed = true;\n        emit Unlocked(_of, lockReason[_of][i], lockedTokens);\n      }\n    }\n\n    if (unlockableTokens > 0) {\n      _transfer(address(this), _of, unlockableTokens);\n    }\n  }\n\n  /**\n  * @dev Gets the unlockable tokens of a specified address\n  * @param _of The address to query the the unlockable token count of\n  */\n  function getUnlockableTokens(address _of)\n      public\n      view\n      returns (uint256 unlockableTokens)\n  {\n    uint256 i = 0;\n    for ( i ; i < lockReason[_of].length; i++) {\n      unlockableTokens = unlockableTokens.add(tokensUnlockable(_of, lockReason[_of][i]));\n    }\n  }\n\n  /**\n  * @dev Transfers and Locks a specified amount of tokens,\n  *      for a specified reason and time\n  * @param _to adress to which tokens are to be transfered\n  * @param _reason The reason to lock tokens\n  * @param _amount Number of tokens to be transfered and locked\n  * @param _time Lock time in seconds\n  */\n  function transferWithLock(address _to, bytes32 _reason, uint256 _amount, uint256 _time) public onlyWhitelistAdmin returns (bool) {\n    require(_to != address(0), \"Zero address not allowed\");\n    require(_amount != 0, AMOUNT_ZERO);\n    require(tokensLocked(_to, _reason) == 0, ALREADY_LOCKED);\n    require(balanceOf(msg.sender) > _amount);\n\n    uint256 validUntil = now.add(_time); //solium-disable-line\n\n    // not allowed duplicate reason for address\n    if (locked[_to][_reason].amount == 0)\n      lockReason[_to].push(_reason);\n\n    _transfer(msg.sender, address(this), _amount);\n\n    locked[_to][_reason] = LockToken(_amount, validUntil, false);\n\n    emit Locked(_to, _reason, _amount, validUntil);\n    return true;\n  }\n\n  /**\n  * @dev Extends lock for a specified reason and time\n  * @param _to adress to which tokens are to be extended lock\n  * @param _reason The reason to lock tokens\n  * @param _time Lock extension time in seconds\n  */\n  function extendLock(address _to, bytes32 _reason, uint256 _time) public onlyWhitelistAdmin returns (bool) {\n    require(_to != address(0), \"Zero address not allowed\");\n    require(tokensLocked(_to, _reason) > 0, NOT_LOCKED);\n\n    locked[_to][_reason].validity = locked[_to][_reason].validity.add(_time);\n\n    emit Locked(_to, _reason, locked[_to][_reason].amount, locked[_to][_reason].validity);\n    return true;\n  }\n\n  /**\n  * @dev Increase number of tokens locked for a specified reason\n  * @param _to adress to which tokens are to be increased\n  * @param _reason The reason to lock tokens\n  * @param _amount Number of tokens to be increased\n  */\n  function increaseLockAmount(address _to, bytes32 _reason, uint256 _amount) public onlyWhitelistAdmin returns (bool) {\n    require(_to != address(0), \"Zero address not allowed\");\n    require(tokensLocked(_to, _reason) > 0, NOT_LOCKED);\n\n    _transfer(msg.sender, address(this), _amount);\n\n    locked[_to][_reason].amount = locked[_to][_reason].amount.add(_amount);\n\n    emit Locked(_to, _reason, locked[_to][_reason].amount, locked[_to][_reason].validity);\n    return true;\n  }\n\n  /**\n  * @dev get length of lockReason array\n  * @param _of address\n  */\n  function getSizeOfLockReason(address _of) public view returns (uint256) {\n    return lockReason[_of].length;\n  }\n}\n\n// File: contracts/token/StakingToken.sol\n\npragma solidity ^0.5.6;\n\n/**\n * @title Staking Token (STK)\n * @author Alberto Cuesta Canada\n * @dev Implements a basic ERC20 staking token with incentive distribution.\n */\ncontract StakingToken is LockableToken {\n  /**\n  * @dev Emitted when user staked token.\n  */\n  event Staked(address account, uint256 amount);\n\n  /**\n  * @dev Emitted when user unstaked token.\n  */\n  event Unstaked(address account, uint256 amount);\n\n  /**\n  * @dev Emitted when user unstaked token.\n  */\n  event validStakePeriod(uint256 _startTime, uint256 _duration, bool stakeFlag);\n\n  /**\n  * @dev We usually require to know who are all the stakeholders.\n  */\n  address[] internal stakeholders;\n\n  /**\n  * @dev The stakes for each stakeholder.\n  */\n  mapping(address => uint256) internal stakes;\n\n  uint256 private secondsInterval;\n  uint256 private validStakeDuration;\n  uint256 private validStakeStartTime;\n  bool private stakeFlag;\n\n  /**\n  * @dev Initializes the contract in stake state.\n  * to the deployer.\n  */\n  constructor () internal {\n    secondsInterval = 60*60*24*7; // default : interval 7 days\n    validStakeDuration = 32400;  // default : 60*60*9 ( 9hours )\n    validStakeStartTime = now - validStakeDuration;  //solium-disable-line\n    stakeFlag = false;\n  }\n\n  // ---------- SET TIME ----------\n  modifier isvalidStakePeriod() {\n    require(stakeFlag, \"stake is disabled\");\n    require(isAbleToStake(), \"It's not valid time to stake\"); //solium-disable-line\n    _;\n  }\n\n  /**\n  * @dev Set period of able to stake. (It is automatically set to the same day each week.)\n  * @param _startTime uint256 available start time to set stake/unstake\n  * @param _duration uint256 duration second to set stake/unstake\n  */\n  function setvalidStakePeriod(uint256 _startTime, uint256 _duration) public onlyWhitelistAdmin returns (uint256, uint256){\n    validStakeStartTime = _startTime;\n    validStakeDuration = _duration;\n    stakeFlag = true;\n\n    emit validStakePeriod(_startTime, _duration, stakeFlag);\n\n    return stakePeriod();\n  }\n\n  /**\n  * @dev change the stakeFlag state.\n  * @param _stakeFlag bool stakeFlag state\n  */\n  function setStakeFlag(bool _stakeFlag) public onlyWhitelistAdmin returns (bool) {\n    stakeFlag = _stakeFlag;\n    return stakeFlag;\n  }\n\n  /**\n  * @dev A method for check is able to stake\n  */\n  function isAbleToStake() public view returns (bool){\n    if(!stakeFlag || now < validStakeStartTime) { //solium-disable-line\n      return false;\n    }\n    uint256 validTime = now.sub(validStakeStartTime).mod(secondsInterval); //solium-disable-line\n    return (validTime >= 0 && validTime < validStakeDuration);\n  }\n\n  /**\n  * @dev A method for check period for stake\n  */\n  function stakePeriod() public view returns (uint256 validStakePeriodStart, uint256 validStakePeriodEnd){\n    if(now < validStakeStartTime) { //solium-disable-line\n      validStakePeriodStart = validStakeStartTime;\n      validStakePeriodEnd = validStakePeriodStart.add(validStakeDuration);\n    }else{\n      uint256 week = now.sub(validStakeStartTime).div(secondsInterval); //solium-disable-line\n\n      if(isAbleToStake()){\n        validStakePeriodStart = validStakeStartTime.add(secondsInterval.mul(week));\n      }else{\n        validStakePeriodStart = validStakeStartTime.add(secondsInterval.mul(week.add(1)));\n      }\n      validStakePeriodEnd = validStakePeriodStart.add(validStakeDuration);\n    }\n  }\n  // ---------- STAKES ----------\n  /**\n  * @dev A method for a stakeholder to create a stake.\n  * @param _stake The size of the stake to be created.\n  */\n  function createStake(uint256 _stake) external isvalidStakePeriod {\n    require(transfer(address(this), _stake), \"Token transfer failed\");\n    if(stakes[msg.sender] == 0) _addStakeholder(msg.sender);\n    stakes[msg.sender] = stakes[msg.sender].add(_stake);\n\n    emit Staked(msg.sender,_stake);\n  }\n\n  /**\n  * @dev A method for a stakeholder to remove a stake.\n  * @param _stake The size of the stake to be removed.\n  */\n  function removeStake(uint256 _stake) external isvalidStakePeriod {\n    require(_stake <= stakes[msg.sender], \"insufficient stake balance\");\n    stakes[msg.sender] = stakes[msg.sender].sub(_stake);\n    if(stakes[msg.sender] == 0) _removeStakeholder(msg.sender);\n\n    _transfer(address(this), msg.sender, _stake);\n    emit Unstaked(msg.sender,_stake);\n  }\n\n  /**\n  * @dev A method to retrieve the stake for a stakeholder.\n  * @param _stakeholder The stakeholder to retrieve the stake for.\n  * @return uint256 The amount of wei staked.\n  */\n  function stakeOf(address _stakeholder) public view returns(uint256) {\n    return stakes[_stakeholder];\n  }\n\n  /**\n  * @dev A method to the aggregated stakes from all stakeholders.\n  * @return uint256 The aggregated stakes from all stakeholders.\n  */\n  function totalStakes() public view returns(uint256) {\n    uint256 _totalStakes = 0;\n    uint256 s = 0;\n    for ( s ; s < stakeholders.length; s += 1){\n      _totalStakes = _totalStakes.add(stakes[stakeholders[s]]);\n    }\n    return _totalStakes;\n  }\n\n  // ---------- STAKEHOLDERS ----------\n  /**\n  * @dev A method to check if an address is a stakeholder.\n  * @param _address The address to verify.\n  * @return bool, uint256 Whether the address is a stakeholder,\n  * and if so its position in the stakeholders array.\n  */\n  function isStakeholder(address _address) public view returns(bool, uint256) {\n    uint256 s = 0;\n    for ( s ; s < stakeholders.length; s += 1){\n      if (_address == stakeholders[s]) return (true, s);\n    }\n    return (false, 0);\n  }\n\n  /**\n  * @dev A method to add a stakeholder.\n  * @param _stakeholder The stakeholder to add.\n  */\n  function _addStakeholder(address _stakeholder) internal {\n    (bool _isStakeholder, ) = isStakeholder(_stakeholder);\n    if(!_isStakeholder) stakeholders.push(_stakeholder);\n  }\n\n  /**\n  * @dev A method to remove a stakeholder.\n  * @param _stakeholder The stakeholder to remove.\n  */\n  function _removeStakeholder(address _stakeholder) internal {\n    (bool _isStakeholder, uint256 s) = isStakeholder(_stakeholder);\n    if(_isStakeholder){\n      stakeholders[s] = stakeholders[stakeholders.length - 1];\n      stakeholders.pop();\n    }\n  }\n\n  /**\n  * @dev A method to get stake holders\n  */\n  function stakeholderList() external view returns (address[] memory) {\n    return stakeholders;\n  }\n}\n\n// File: contracts/HiblocksToken.sol\n\npragma solidity ^0.5.6;\n\n\n\ncontract HiblocksToken is ERC20Detailed, StakingToken {\n\n  mapping(address => mapping(uint => bytes)) public memos;\n\n  /**\n  * @dev constructor to mint initial tokens\n  * @param name string\n  * @param symbol string\n  * @param decimals uint8\n  * @param initialSupply uint256\n  */\n  constructor(string memory name, string memory symbol, uint8 decimals, uint256 initialSupply)\n    public\n    ERC20Detailed(name, symbol, decimals)\n  {\n    // Mint the initial supply\n    require(initialSupply > 0, \"initialSupply must be greater than zero.\");\n    _mint(_msgSender(), initialSupply * (10 ** uint256(decimals)));\n  }\n\n  /**\n  * @dev Transfer token for a specified address with memo\n  * @param to The address to transfer to.\n  * @param value The amount to be transferred.\n  * @param memo The memo to be saved.\n  */\n  function transferWithMemo(address to, uint256 value, bytes memory memo) public returns (bool) {\n    require(transfer(to, value), \"Token transfer failed\");\n    memos[to][block.number] = memo;\n    return true;\n  }\n\n  /**\n  * @dev Gets the memo of the specified address and block number.\n  * @param addr The address to query the memo of.\n  * @param blockNumber The block number to query the memo of.\n  * @return An bytes representing the memo writed by the passed address.\n  */\n  function memoOf(address addr, uint blockNumber) external view returns (bytes memory) {\n    return(memos[addr][blockNumber]);\n  }\n\n  /**\n  * @dev Destroys `amount` tokens from the caller.\n  *\n  * See {ERC20-_burn}.\n  */\n  function burn(uint256 amount) public onlyWhitelistAdmin {\n    super._burn(_msgSender(), amount);\n  }\n\n  /**\n  * @dev Destroys `amount` tokens from the address.\n  *\n  * See {ERC20-_burnFrom}.\n  */\n  function burnFrom(address addr, uint256 amount) public onlyWhitelistAdmin {\n    super._burnFrom(addr, amount);\n  }\n\n  /**\n  * @dev Returns total tokens held by an address (transferable + locked)\n  * @param _addr The address to query the total balance of\n  */\n  function totalBalanceOf(address _addr) external view returns (uint256 amount, uint256 token, uint256 locked, uint256 staked) {\n    token = balanceOf(_addr);\n    locked = lockBalanceOf(_addr);\n    staked = stakeOf(_addr);\n    amount = token.add(locked).add(staked);\n  }\n}\n",
  "sourcePath": "/home/leekt/haechi/contract-hispace/contracts/HiBlocksTokenFlattened.sol",
  "compiler": {
    "name": "solc",
    "version": "0.5.6+commit.b259423e.Emscripten.clang"
  },
  "schemaVersion": "3.0.20",
  "updatedAt": "2020-03-25T08:10:48.197Z",
  "networkType": "ethereum",
  "devdoc": {
    "methods": {
      "allowance(address,address)": {
        "details": "See {IERC20-allowance}."
      },
      "approve(address,uint256)": {
        "details": "set modifier is paused to approve function",
        "params": {
          "spender": "address",
          "value": "uint256"
        }
      },
      "balanceOf(address)": {
        "details": "See {IERC20-balanceOf}."
      },
      "burn(uint256)": {
        "details": "Destroys `amount` tokens from the caller.  * See {ERC20-_burn}."
      },
      "burnFrom(address,uint256)": {
        "details": "Destroys `amount` tokens from the address.  * See {ERC20-_burnFrom}."
      },
      "constructor": {
        "details": "constructor to mint initial tokens",
        "params": {
          "decimals": "uint8",
          "initialSupply": "uint256",
          "name": "string",
          "symbol": "string"
        }
      },
      "createStake(uint256)": {
        "details": "A method for a stakeholder to create a stake.",
        "params": {
          "_stake": "The size of the stake to be created."
        }
      },
      "decimals()": {
        "details": "Returns the number of decimals used to get its user representation. For example, if `decimals` equals `2`, a balance of `505` tokens should be displayed to a user as `5,05` (`505 / 10 ** 2`).     * Tokens usually opt for a value of 18, imitating the relationship between Ether and Wei.     * NOTE: This information is only used for _display_ purposes: it in no way affects any of the arithmetic of the contract, including {IERC20-balanceOf} and {IERC20-transfer}."
      },
      "decreaseAllowance(address,uint256)": {
        "details": "set modifier is paused to decreaseAllowance function",
        "params": {
          "spender": "address",
          "subtractedValue": "uint256"
        }
      },
      "extendLock(address,bytes32,uint256)": {
        "details": "Extends lock for a specified reason and time",
        "params": {
          "_reason": "The reason to lock tokens",
          "_time": "Lock extension time in seconds",
          "_to": "adress to which tokens are to be extended lock"
        }
      },
      "getSizeOfLockReason(address)": {
        "details": "get length of lockReason array",
        "params": {
          "_of": "address"
        }
      },
      "getUnlockableTokens(address)": {
        "details": "Gets the unlockable tokens of a specified address",
        "params": {
          "_of": "The address to query the the unlockable token count of"
        }
      },
      "increaseAllowance(address,uint256)": {
        "details": "set modifier is paused to increaseAllowance function",
        "params": {
          "addedValue": "uint256",
          "spender": "address"
        }
      },
      "increaseLockAmount(address,bytes32,uint256)": {
        "details": "Increase number of tokens locked for a specified reason",
        "params": {
          "_amount": "Number of tokens to be increased",
          "_reason": "The reason to lock tokens",
          "_to": "adress to which tokens are to be increased"
        }
      },
      "isAbleToStake()": {
        "details": "A method for check is able to stake"
      },
      "isStakeholder(address)": {
        "details": "A method to check if an address is a stakeholder.",
        "params": {
          "_address": "The address to verify."
        },
        "return": "bool, uint256 Whether the address is a stakeholder, and if so its position in the stakeholders array."
      },
      "lockBalanceOf(address)": {
        "details": "Returns total tokens held by an address (locked + transferable)",
        "params": {
          "_of": "The address to query the total balance of"
        }
      },
      "memoOf(address,uint256)": {
        "details": "Gets the memo of the specified address and block number.",
        "params": {
          "addr": "The address to query the memo of.",
          "blockNumber": "The block number to query the memo of."
        },
        "return": "An bytes representing the memo writed by the passed address."
      },
      "name()": {
        "details": "Returns the name of the token."
      },
      "pause()": {
        "details": "Called by a whitelistAdmin to pause, triggers stopped state."
      },
      "paused()": {
        "details": "Returns true if the contract is paused, and false otherwise."
      },
      "removeStake(uint256)": {
        "details": "A method for a stakeholder to remove a stake.",
        "params": {
          "_stake": "The size of the stake to be removed."
        }
      },
      "setStakeFlag(bool)": {
        "details": "change the stakeFlag state.",
        "params": {
          "_stakeFlag": "bool stakeFlag state"
        }
      },
      "setvalidStakePeriod(uint256,uint256)": {
        "details": "Set period of able to stake. (It is automatically set to the same day each week.)",
        "params": {
          "_duration": "uint256 duration second to set stake/unstake",
          "_startTime": "uint256 available start time to set stake/unstake"
        }
      },
      "stakeOf(address)": {
        "details": "A method to retrieve the stake for a stakeholder.",
        "params": {
          "_stakeholder": "The stakeholder to retrieve the stake for."
        },
        "return": "uint256 The amount of wei staked."
      },
      "stakePeriod()": {
        "details": "A method for check period for stake"
      },
      "stakeholderList()": {
        "details": "A method to get stake holders"
      },
      "symbol()": {
        "details": "Returns the symbol of the token, usually a shorter version of the name."
      },
      "tokensLocked(address,bytes32)": {
        "details": "Returns tokens locked for a specified address for a specified reason",
        "params": {
          "_of": "The address whose tokens are locked",
          "_reason": "The reason to query the lock tokens for"
        }
      },
      "tokensLockedAtTime(address,bytes32,uint256)": {
        "details": "Returns tokens locked for a specified address for a     specified reason at a specific time",
        "params": {
          "_of": "The address whose tokens are locked",
          "_reason": "The reason to query the lock tokens for",
          "_time": "The timestamp to query the lock tokens for"
        }
      },
      "tokensUnlockable(address,bytes32)": {
        "details": "Returns unlockable tokens for a specified address for a specified reason",
        "params": {
          "_of": "The address to query the the unlockable token count of",
          "_reason": "The reason to query the unlockable tokens for"
        }
      },
      "tokensValidity(address,bytes32)": {
        "details": "Returns tokens validity for a specified address for a specified reason",
        "params": {
          "_of": "The address whose tokens are locked",
          "_reason": "The reason to query the lock tokens for"
        }
      },
      "totalBalanceOf(address)": {
        "details": "Returns total tokens held by an address (transferable + locked)",
        "params": {
          "_addr": "The address to query the total balance of"
        }
      },
      "totalStakes()": {
        "details": "A method to the aggregated stakes from all stakeholders.",
        "return": "uint256 The aggregated stakes from all stakeholders."
      },
      "totalSupply()": {
        "details": "See {IERC20-totalSupply}."
      },
      "transfer(address,uint256)": {
        "details": "set modifier is paused to transfer function",
        "params": {
          "to": "address",
          "value": "uint256"
        }
      },
      "transferFrom(address,address,uint256)": {
        "details": "set modifier is paused to transferFrom function",
        "params": {
          "from": "address",
          "to": "address",
          "value": "uint256"
        }
      },
      "transferWithLock(address,bytes32,uint256,uint256)": {
        "details": "Transfers and Locks a specified amount of tokens,     for a specified reason and time",
        "params": {
          "_amount": "Number of tokens to be transfered and locked",
          "_reason": "The reason to lock tokens",
          "_time": "Lock time in seconds",
          "_to": "adress to which tokens are to be transfered"
        }
      },
      "transferWithMemo(address,uint256,bytes)": {
        "details": "Transfer token for a specified address with memo",
        "params": {
          "memo": "The memo to be saved.",
          "to": "The address to transfer to.",
          "value": "The amount to be transferred."
        }
      },
      "unlock(address)": {
        "details": "Unlocks the unlockable tokens of a specified address",
        "params": {
          "_of": "Address of user, claiming back unlockable tokens"
        }
      },
      "unpause()": {
        "details": "Called by a whitelistAdmin to unpause, returns to normal state."
      }
    }
  },
  "userdoc": {
    "methods": {}
  }
}