{
  "contractName": "HiQuest",
  "abi": [
    {
      "inputs": [
        {
          "name": "_hiblocks",
          "type": "address"
        }
      ],
      "payable": false,
      "stateMutability": "nonpayable",
      "type": "constructor"
    },
    {
      "anonymous": false,
      "inputs": [
        {
          "indexed": false,
          "name": "questId",
          "type": "bytes32"
        },
        {
          "indexed": false,
          "name": "manager",
          "type": "address"
        },
        {
          "indexed": false,
          "name": "open",
          "type": "uint256"
        },
        {
          "indexed": false,
          "name": "close",
          "type": "uint256"
        },
        {
          "indexed": false,
          "name": "deposit",
          "type": "uint256"
        }
      ],
      "name": "HiquestCreated",
      "type": "event"
    },
    {
      "anonymous": false,
      "inputs": [
        {
          "indexed": false,
          "name": "questId",
          "type": "bytes32"
        },
        {
          "indexed": false,
          "name": "manager",
          "type": "address"
        }
      ],
      "name": "HiquestManagerChanged",
      "type": "event"
    },
    {
      "anonymous": false,
      "inputs": [
        {
          "indexed": false,
          "name": "questId",
          "type": "bytes32"
        },
        {
          "indexed": false,
          "name": "user",
          "type": "address"
        },
        {
          "indexed": false,
          "name": "desc",
          "type": "bytes"
        }
      ],
      "name": "UserJoined",
      "type": "event"
    },
    {
      "anonymous": false,
      "inputs": [
        {
          "indexed": false,
          "name": "questId",
          "type": "bytes32"
        },
        {
          "indexed": false,
          "name": "to",
          "type": "address"
        },
        {
          "indexed": false,
          "name": "amount",
          "type": "uint256"
        }
      ],
      "name": "Rewarded",
      "type": "event"
    },
    {
      "anonymous": false,
      "inputs": [
        {
          "indexed": false,
          "name": "questId",
          "type": "bytes32"
        }
      ],
      "name": "HiquestClosed",
      "type": "event"
    },
    {
      "anonymous": false,
      "inputs": [
        {
          "indexed": false,
          "name": "questId",
          "type": "bytes32"
        },
        {
          "indexed": false,
          "name": "amount",
          "type": "uint256"
        }
      ],
      "name": "WithDrawn",
      "type": "event"
    },
    {
      "constant": false,
      "inputs": [
        {
          "name": "_questId",
          "type": "bytes32"
        },
        {
          "name": "_open",
          "type": "uint256"
        },
        {
          "name": "_close",
          "type": "uint256"
        },
        {
          "name": "_deposit",
          "type": "uint256"
        }
      ],
      "name": "create",
      "outputs": [
        {
          "name": "",
          "type": "bool"
        }
      ],
      "payable": false,
      "stateMutability": "nonpayable",
      "type": "function"
    },
    {
      "constant": false,
      "inputs": [
        {
          "name": "_questId",
          "type": "bytes32"
        },
        {
          "name": "desc",
          "type": "bytes"
        }
      ],
      "name": "join",
      "outputs": [
        {
          "name": "",
          "type": "bool"
        }
      ],
      "payable": false,
      "stateMutability": "nonpayable",
      "type": "function"
    },
    {
      "constant": false,
      "inputs": [
        {
          "name": "_questId",
          "type": "bytes32"
        },
        {
          "name": "_manager",
          "type": "address"
        }
      ],
      "name": "changeManager",
      "outputs": [
        {
          "name": "",
          "type": "bool"
        }
      ],
      "payable": false,
      "stateMutability": "nonpayable",
      "type": "function"
    },
    {
      "constant": false,
      "inputs": [
        {
          "name": "_questId",
          "type": "bytes32"
        },
        {
          "name": "_to",
          "type": "address"
        },
        {
          "name": "_amount",
          "type": "uint256"
        }
      ],
      "name": "reward",
      "outputs": [
        {
          "name": "",
          "type": "bool"
        }
      ],
      "payable": false,
      "stateMutability": "nonpayable",
      "type": "function"
    },
    {
      "constant": false,
      "inputs": [
        {
          "name": "_questId",
          "type": "bytes32"
        }
      ],
      "name": "close",
      "outputs": [
        {
          "name": "",
          "type": "bool"
        }
      ],
      "payable": false,
      "stateMutability": "nonpayable",
      "type": "function"
    },
    {
      "constant": false,
      "inputs": [
        {
          "name": "_questId",
          "type": "bytes32"
        }
      ],
      "name": "withdrawDeposit",
      "outputs": [
        {
          "name": "",
          "type": "bool"
        }
      ],
      "payable": false,
      "stateMutability": "nonpayable",
      "type": "function"
    },
    {
      "constant": true,
      "inputs": [
        {
          "name": "_questId",
          "type": "bytes32"
        }
      ],
      "name": "questInfo",
      "outputs": [
        {
          "name": "manager",
          "type": "address"
        },
        {
          "name": "open",
          "type": "uint256"
        },
        {
          "name": "end",
          "type": "uint256"
        },
        {
          "name": "deposit",
          "type": "uint256"
        },
        {
          "name": "balance",
          "type": "uint256"
        },
        {
          "name": "closed",
          "type": "bool"
        }
      ],
      "payable": false,
      "stateMutability": "view",
      "type": "function"
    },
    {
      "constant": true,
      "inputs": [
        {
          "name": "_manager",
          "type": "address"
        }
      ],
      "name": "managingQuests",
      "outputs": [
        {
          "name": "quests",
          "type": "bytes32[]"
        }
      ],
      "payable": false,
      "stateMutability": "view",
      "type": "function"
    },
    {
      "constant": true,
      "inputs": [
        {
          "name": "_questId",
          "type": "bytes32"
        }
      ],
      "name": "joinedUsers",
      "outputs": [
        {
          "name": "users",
          "type": "address[]"
        }
      ],
      "payable": false,
      "stateMutability": "view",
      "type": "function"
    }
  ],
  "bytecode": "0x608060405234801561001057600080fd5b5060405160208061143e8339810180604052602081101561003057600080fd5b50516001600160a01b038116610091576040517f08c379a000000000000000000000000000000000000000000000000000000000815260040180806020018281038252602481526020018061141a6024913960400191505060405180910390fd5b600080546001600160a01b039092166001600160a01b0319909216919091179055611359806100c16000396000f3fe608060405234801561001057600080fd5b50600436106100a35760003560e01c80635421ebc911610076578063b0a1c6111161005b578063b0a1c61114610268578063f49024bd14610294578063f9ca3e16146102ba576100a3565b80635421ebc914610219578063a8e06bc31461024b576100a3565b806333d67c4f146100a857806339c79e0c146101335780633d5125b31461015057806349c40c58146101bd575b600080fd5b61011f600480360360408110156100be57600080fd5b813591908101906040810160208201356401000000008111156100e057600080fd5b8201836020820111156100f257600080fd5b8035906020019184600183028401116401000000008311171561011457600080fd5b5090925090506102e9565b604080519115158252519081900360200190f35b61011f6004803603602081101561014957600080fd5b50356105e4565b61016d6004803603602081101561016657600080fd5b503561074a565b60408051602080825283518183015283519192839290830191858101910280838360005b838110156101a9578181015183820152602001610191565b505050509050019250505060405180910390f35b6101da600480360360208110156101d357600080fd5b50356107b6565b604080516001600160a01b03909716875260208701959095528585019390935260608501919091526080840152151560a0830152519081900360c00190f35b61011f6004803603606081101561022f57600080fd5b508035906001600160a01b036020820135169060400135610841565b61011f6004803603602081101561026157600080fd5b5035610ac6565b61011f6004803603604081101561027e57600080fd5b50803590602001356001600160a01b0316610c62565b61016d600480360360208110156102aa57600080fd5b50356001600160a01b0316610dd4565b61011f600480360360808110156102d057600080fd5b5080359060208101359060408101359060600135610e3f565b6000838152600160205260408120546001600160a01b03166103555760408051600160e51b62461bcd02815260206004820152601960248201527f4a6f696e2f517565737420646f6573206e6f7420657869737400000000000000604482015290519081900360640190fd5b600084815260046020908152604080832033845290915290205460ff16156103c75760408051600160e51b62461bcd02815260206004820152601360248201527f4a6f696e2f416c7265616479204a6f696e656400000000000000000000000000604482015290519081900360640190fd5b6103cf611155565b50600084815260016020818152604092839020835160c08101855281546001600160a01b0316815292810154918301829052600281015493830193909352600383015460608301526004830154608083015260059092015460ff16151560a08201529042116104885760408051600160e51b62461bcd02815260206004820152601c60248201527f4a6f696e2f5175657374206973206e6f74206f70656e65642079657400000000604482015290519081900360640190fd5b428160400151116104e35760408051600160e51b62461bcd02815260206004820152601c60248201527f4a6f696e2f517565737420697320616c726561647920636c6f73656400000000604482015290519081900360640190fd5b600085815260046020908152604080832033808552908352818420805460ff19166001179055888452600583528184209084529091529020610526908585611196565b506000858152600660209081526040808320805460018101825590845292829020909201805473ffffffffffffffffffffffffffffffffffffffff191633908117909155825188815291820181905260609282018381529282018690527fca0f81ffa7da377ced93c44038c52009478070024e73c26f1e05536142a6bc5a928892889188919060808201848480828437600083820152604051601f909101601f191690920182900397509095505050505050a1506001949350505050565b60008181526001602052604081205482906001600160a01b0316331461063e57604051600160e51b62461bcd0281526004018080602001828103825260288152602001806112326028913960400191505060405180910390fd5b6000838152600160208190526040909120908101544210806106635750428160020154105b6106a157604051600160e51b62461bcd0281526004018080602001828103825260348152602001806112ce6034913960400191505060405180910390fd5b600581015460ff16156106fe5760408051600160e51b62461bcd02815260206004820152601a60248201527f436c6f73652f517565737420616c726561647920636c6f736564000000000000604482015290519081900360640190fd5b60058101805460ff191660011790556040805185815290517fc2d3886921507b876d10abf01cbccfaa40446c29c9de2e8521210ea488271a5c9181900360200190a15060019392505050565b6000818152600660209081526040918290208054835181840281018401909452808452606093928301828280156107aa57602002820191906000526020600020905b81546001600160a01b0316815260019091019060200180831161078c575b50505050509050919050565b6000806000806000806107c7611155565b5050506000948552505060016020818152604094859020855160c08101875281546001600160a01b031680825293820154928101839052600282015496810187905260038201546060820181905260048301546080830181905260059093015460ff16151560a09092018290529397929695509293509190565b60008381526001602052604081205484906001600160a01b0316331461089b57604051600160e51b62461bcd0281526004018080602001828103825260288152602001806112326028913960400191505060405180910390fd5b60008581526001602081905260409091209081015442116109065760408051600160e51b62461bcd02815260206004820152601b60248201527f5265776172642f5175657374206e6f74206f70656e6564207965740000000000604482015290519081900360640190fd5b60008681526004602090815260408083206001600160a01b038916845290915290205460ff1661096a57604051600160e51b62461bcd0281526004018080602001828103825260248152602001806112aa6024913960400191505060405180910390fd5b6004810154848103106109c75760408051600160e51b62461bcd02815260206004820152601f60248201527f5265776172642f496e76616c696420616d6f756e74206f662072657761726400604482015290519081900360640190fd5b60048082018054869003905560008054604080517fa9059cbb0000000000000000000000000000000000000000000000000000000081526001600160a01b038a811695820195909552602481018990529051939091169263a9059cbb92604480840193602093929083900390910190829087803b158015610a4757600080fd5b505af1158015610a5b573d6000803e3d6000fd5b505050506040513d6020811015610a7157600080fd5b5050604080518781526001600160a01b038716602082015280820186905290517ea9c35a9cc55627796dbf4494a4853a2fcdda9e2051e0e7cc3d9d995ac79df99181900360600190a150600195945050505050565b60008181526001602052604081205482906001600160a01b03163314610b2057604051600160e51b62461bcd0281526004018080602001828103825260288152602001806112326028913960400191505060405180910390fd5b6000838152600160205260409020600581015460ff16610b7457604051600160e51b62461bcd02815260040180806020018281038252602e81526020018061125a602e913960400191505060405180910390fd5b600480820180546000918290558154604080517fa9059cbb0000000000000000000000000000000000000000000000000000000081523395810195909552602485018390525191936001600160a01b039091169263a9059cbb926044808401936020939083900390910190829087803b158015610bf057600080fd5b505af1158015610c04573d6000803e3d6000fd5b505050506040513d6020811015610c1a57600080fd5b5050604080518681526020810183905281517fa50d8c27e6179867c20c12a87c6fc0fd748d8e3c1fc20c2c52b3dfaa49b3d779929181900390910190a1506001949350505050565b60008281526001602052604081205483906001600160a01b03163314610cbc57604051600160e51b62461bcd0281526004018080602001828103825260288152602001806112326028913960400191505060405180910390fd5b6001600160a01b038316610d0457604051600160e51b62461bcd02815260040180806020018281038252602c815260200180611302602c913960400191505060405180910390fd5b6000848152600160209081526040808320805473ffffffffffffffffffffffffffffffffffffffff19166001600160a01b03881617905533835260029091529020610d4f90856110b9565b506001600160a01b038316600081815260026020908152604080832080546001810182558185528385200189905554888452600383529281902060001990930190925581518781529081019290925280517fc1c5d93db754ebb6edb22008e55779b87da553ed1bd4bb120086ca6104c3662e9281900390910190a15060019392505050565b6001600160a01b0381166000908152600260209081526040918290208054835181840281018401909452808452606093928301828280156107aa57602002820191906000526020600020905b815481526020019060010190808311610e205750505050509050919050565b600084815260016020526040812080546001600160a01b031615610ead5760408051600160e51b62461bcd02815260206004820152601960248201527f4372656174652f4475706c696361746564207175657374496400000000000000604482015290519081900360640190fd5b60008054604080517f23b872dd0000000000000000000000000000000000000000000000000000000081523360048201523060248201526044810187905290516001600160a01b03909216926323b872dd926064808401936020939083900390910190829087803b158015610f2157600080fd5b505af1158015610f35573d6000803e3d6000fd5b505050506040513d6020811015610f4b57600080fd5b5051610fa15760408051600160e51b62461bcd02815260206004820152601460248201527f4372656174652f4465706f736974204572726f72000000000000000000000000604482015290519081900360640190fd5b428411610fe257604051600160e51b62461bcd0281526004018080602001828103825260228152602001806112886022913960400191505060405180910390fd5b805473ffffffffffffffffffffffffffffffffffffffff19163390811782556001808301879055600280840187905560038085018790556004850187905560058501805460ff19169055600084815260209283526040808220805495860181558083528483209095018c905593548b82529183528390206000199190910190558151898152908101929092528181018790526060820186905260808201859052517f448313f980c9940a4d00aff47fb48a69827a4c52faf58dd3124cf0627dd013ba9181900360a00190a150600195945050505050565b600080836001858054905003815481106110cf57fe5b9060005260206000200154905080846003600086815260200190815260200160002054815481106110fc57fe5b90600052602060002001819055508380548061111457fe5b600082815260208082208301600019908101839055909201909255848252600390526040808220805493835290822092909255838152905550600192915050565b6040518060c0016040528060006001600160a01b03168152602001600081526020016000815260200160008152602001600081526020016000151581525090565b828054600181600116156101000203166002900490600052602060002090601f016020900481019282601f106111d75782800160ff19823516178555611204565b82800160010185558215611204579182015b828111156112045782358255916020019190600101906111e9565b50611210929150611214565b5090565b61122e91905b80821115611210576000815560010161121a565b9056fe417574682f4f6e6c79204d616e616765722063616e2063616c6c20746869732066756e6374696f6e57697468647261772f43616e6e6f742077697468647261772066726f6d206e6f7420636c6f7365642071756573744372656174652f436c6f73652074696d652073686f756c64206265206675747572655265776172642f43616e6e6f7420726577617264206e6f74206a6f696e65642075736572436c6f73652f51756573742063616e6e6f7420626520636c6f73656420647572696e6720616e6e6f756e63656420706572696f644368616e67654d616e616765722f4d616e616765722063616e6e6f74206265207a65726f2061646472657373a165627a7a723058205d58a6ac7f10f12423b6ef8e2c0680ebcd13ac08977cb48a02ffc016506516e20029486951756573742f746f6b656e20616464726573732063616e6e6f74206265207a65726f",
  "source": "pragma solidity 0.5.6;\n\nimport \"./interface/IHiQuest.sol\";\nimport \"./token/HiblocksIERC20.sol\";\n\ncontract HiQuest is IHiQuest {\n  struct Quest{\n    address manager;\n    uint256 open;\n    uint256 close;\n    uint256 deposit;\n    uint256 balance;\n    bool closed;\n  }\n\n  HiblocksIERC20 internal _token;\n\n  mapping (bytes32 => Quest) internal _quests;\n  mapping (address => bytes32[]) internal _managing;\n  mapping (bytes32 => uint256) internal _managingIndex;\n  mapping (bytes32 => mapping(address => bool)) internal _joined;\n  mapping (bytes32 => mapping(address => bytes)) internal _joinDesc;\n  mapping (bytes32 => address[]) internal _users;\n  \n  modifier onlyManager(bytes32 _questId) {\n    require(msg.sender == _quests[_questId].manager, \"Auth/Only Manager can call this function\");\n    _;\n  }\n\n  constructor(address _hiblocks) public {\n    require(_hiblocks != address(0), \"HiQuest/token address cannot be zero\");\n    _token = HiblocksIERC20(_hiblocks);\n  }\n\n  function create(bytes32 _questId, uint256 _open, uint256 _close, uint256 _deposit) external returns(bool) {\n    Quest storage quest = _quests[_questId];\n    require(quest.manager == address(0),\"Create/Duplicated questId\");\n    require(_token.transferFrom(msg.sender, address(this), _deposit), \"Create/Deposit Error\");\n    require(_close > now, \"Create/Close time should be future\");\n\n    quest.manager = msg.sender;\n    quest.open = _open;\n    quest.close = _close;\n    quest.deposit = _deposit;\n    quest.balance = _deposit;\n    quest.closed = false;\n    _managing[msg.sender].push(_questId);\n    _managingIndex[_questId] = _managing[msg.sender].length - 1;\n    emit HiquestCreated(_questId, msg.sender, _open, _close, _deposit);\n    return true;\n  }\n\n  function join(bytes32 _questId, bytes calldata desc) external returns(bool) {\n    require(_quests[_questId].manager != address(0), \"Join/Quest does not exist\");\n    require(!_joined[_questId][msg.sender], \"Join/Already Joined\");\n    Quest memory quest = _quests[_questId];\n    require(quest.open < now,\"Join/Quest is not opened yet\");\n    require(quest.close > now , \"Join/Quest is already closed\");\n    _joined[_questId][msg.sender] = true;\n    _joinDesc[_questId][msg.sender] = desc;\n    _users[_questId].push(msg.sender);\n    emit UserJoined(_questId, msg.sender, desc);\n    return true;\n  }\n\n  function changeManager(bytes32 _questId, address _manager) external onlyManager(_questId) returns(bool) {\n    require(_manager != address(0), \"ChangeManager/Manager cannot be zero address\");\n    _quests[_questId].manager = _manager;\n    _deleteFromManaging(_managing[msg.sender], _questId);\n    _managing[_manager].push(_questId);\n    _managingIndex[_questId] = _managing[_manager].length - 1;\n    emit HiquestManagerChanged(_questId, _manager);\n    return true;\n  }\n  \n  function reward(bytes32 _questId, address _to, uint256 _amount) external onlyManager(_questId) returns(bool) {\n    Quest storage quest = _quests[_questId];\n    require(quest.open < now, \"Reward/Quest not opened yet\");\n    require(_joined[_questId][_to], \"Reward/Cannot reward not joined user\");\n    require(quest.balance > quest.balance - _amount, \"Reward/Invalid amount of reward\");\n    quest.balance = quest.balance - _amount;\n    _token.transfer(_to, _amount);\n    emit Rewarded(_questId, _to, _amount);\n    return true;\n  }\n\n  function close(bytes32 _questId) external onlyManager(_questId) returns(bool) {\n    Quest storage quest = _quests[_questId];\n    require(quest.open > now || quest.close < now, \"Close/Quest cannot be closed during announced period\");\n    require(!quest.closed, \"Close/Quest already closed\");\n    quest.closed = true;\n    emit HiquestClosed(_questId);\n    return true;\n  }\n\n  function withdrawDeposit(bytes32 _questId) external onlyManager(_questId) returns(bool) {\n    Quest storage quest = _quests[_questId];\n    require(quest.closed, \"Withdraw/Cannot withdraw from not closed quest\");\n    uint256 amount = quest.balance;\n    quest.balance = 0;\n    _token.transfer(msg.sender, amount);\n    emit WithDrawn(_questId, amount);\n    return true;\n  }\n\n  function questInfo(bytes32 _questId) external view returns(address manager, uint256 open, uint256 end, uint256 deposit, uint256 balance, bool closed) {\n    Quest memory quest = _quests[_questId];\n    manager = quest.manager;\n    open = quest.open;\n    end = quest.close;\n    deposit = quest.deposit;\n    balance = quest.balance;\n    closed = quest.closed;\n  }\n\n  function managingQuests(address _manager) external view returns(bytes32[] memory quests) {\n    return _managing[_manager];\n  }\n\n  function joinedUsers(bytes32 _questId) external view returns(address[] memory users) {\n    return _users[_questId];\n  }\n\n  function _deleteFromManaging(bytes32[] storage _managed, bytes32 _questId) internal returns (bool) {\n    bytes32 lastId = _managed[_managed.length - 1];\n    _managed[_managingIndex[_questId]] = lastId;\n    _managed.pop();\n    _managingIndex[lastId] = _managingIndex[_questId];\n    delete _managingIndex[_questId];\n    return true;\n  }\n}\n",
  "sourcePath": "/home/leekt/haechi/contract-hispace/contracts/HiQuest.sol",
  "compiler": {
    "name": "solc",
    "version": "0.5.6+commit.b259423e.Emscripten.clang"
  },
  "schemaVersion": "3.0.20",
  "updatedAt": "2020-03-25T08:10:48.168Z",
  "networkType": "ethereum",
  "devdoc": {
    "methods": {}
  },
  "userdoc": {
    "methods": {}
  }
}