{
  "contractName": "HispaceActivity",
  "abi": [
    {
      "anonymous": false,
      "inputs": [
        {
          "indexed": false,
          "name": "activityType",
          "type": "bytes32"
        },
        {
          "indexed": false,
          "name": "who",
          "type": "address"
        },
        {
          "indexed": false,
          "name": "desc",
          "type": "bytes"
        },
        {
          "indexed": false,
          "name": "datetime",
          "type": "uint256"
        }
      ],
      "name": "activity",
      "type": "event"
    },
    {
      "constant": false,
      "inputs": [
        {
          "name": "activityType",
          "type": "bytes32"
        },
        {
          "name": "desc",
          "type": "bytes"
        }
      ],
      "name": "saveActivity",
      "outputs": [
        {
          "name": "",
          "type": "bool"
        }
      ],
      "payable": false,
      "stateMutability": "nonpayable",
      "type": "function"
    },
    {
      "constant": false,
      "inputs": [
        {
          "name": "activityType",
          "type": "bytes32"
        },
        {
          "name": "to",
          "type": "address"
        },
        {
          "name": "desc",
          "type": "bytes"
        }
      ],
      "name": "saveActivityTo",
      "outputs": [
        {
          "name": "",
          "type": "bool"
        }
      ],
      "payable": false,
      "stateMutability": "nonpayable",
      "type": "function"
    },
    {
      "constant": true,
      "inputs": [
        {
          "name": "who",
          "type": "address"
        },
        {
          "name": "idx",
          "type": "uint256"
        }
      ],
      "name": "historyOf",
      "outputs": [
        {
          "name": "activityType",
          "type": "bytes32"
        },
        {
          "name": "targetAddress",
          "type": "address"
        },
        {
          "name": "desc",
          "type": "bytes"
        },
        {
          "name": "datetime",
          "type": "uint256"
        }
      ],
      "payable": false,
      "stateMutability": "view",
      "type": "function"
    },
    {
      "constant": true,
      "inputs": [
        {
          "name": "who",
          "type": "address"
        }
      ],
      "name": "historySizeOf",
      "outputs": [
        {
          "name": "",
          "type": "uint256"
        }
      ],
      "payable": false,
      "stateMutability": "view",
      "type": "function"
    }
  ],
  "bytecode": "0x608060405234801561001057600080fd5b50610a41806100206000396000f3fe608060405234801561001057600080fd5b506004361061004c5760003560e01c806301db71191461005157806340de11e414610120578063710b3e9d14610158578063841ca5ea14610223575b600080fd5b61010c6004803603606081101561006757600080fd5b8135916001600160a01b036020820135169181019060608101604082013564010000000081111561009757600080fd5b8201836020820111156100a957600080fd5b803590602001918460018302840111640100000000831117156100cb57600080fd5b91908080601f0160208091040260200160405190810160405280939291908181526020018383808284376000920191909152509295506102d0945050505050565b604080519115158252519081900360200190f35b6101466004803603602081101561013657600080fd5b50356001600160a01b031661055c565b60408051918252519081900360200190f35b6101846004803603604081101561016e57600080fd5b506001600160a01b038135169060200135610577565b60405180858152602001846001600160a01b03166001600160a01b0316815260200180602001838152602001828103825284818151815260200191508051906020019080838360005b838110156101e55781810151838201526020016101cd565b50505050905090810190601f1680156102125780820380516001836020036101000a031916815260200191505b509550505050505060405180910390f35b61010c6004803603604081101561023957600080fd5b8135919081019060408101602082013564010000000081111561025b57600080fd5b82018360208201111561026d57600080fd5b8035906020019184600183028401116401000000008311171561028f57600080fd5b91908080601f016020809104026020016040519081016040528093929190818152602001838380828437600092019190915250929550610795945050505050565b6000610bb88251111561034457604080517f08c379a000000000000000000000000000000000000000000000000000000000815260206004820152601060248201527f6465736320697320746f6f206c6f6e6700000000000000000000000000000000604482015290519081900360640190fd5b3360009081526020818152604080832081516080810183528881526001600160a01b03888116828601908152938201888152426060840181905284546001808201808855968a529888902085516004909202019081559551978601805473ffffffffffffffffffffffffffffffffffffffff1916989093169790971790915551805192949193926103db926002850192019061097a565b50606091820151600391909101556001600160a01b0386811660009081526020818152604080832081516080810183528c8152338185019081529281018b8152968101899052815460018082018085559387529585902082516004909202019081559251948301805473ffffffffffffffffffffffffffffffffffffffff1916959096169490941790945593518051939550919392610480926002850192019061097a565b50606082015181600301555050507f834d96fe4fae8c45fce8c6cb6116dd1a578f5abefcf3c339a16106d8e038c17f8533858460405180858152602001846001600160a01b03166001600160a01b0316815260200180602001838152602001828103825284818151815260200191508051906020019080838360005b838110156105145781810151838201526020016104fc565b50505050905090810190601f1680156105415780820380516001836020036101000a031916815260200191505b509550505050505060405180910390a1506001949350505050565b6001600160a01b031660009081526020819052604090205490565b6001600160a01b03821660009081526020819052604081205481906060908290851061060457604080517f08c379a000000000000000000000000000000000000000000000000000000000815260206004820152600c60248201527f6f7574206f662072616e67650000000000000000000000000000000000000000604482015290519081900360640190fd5b6001600160a01b038616600090815260208190526040902080548690811061062857fe5b9060005260206000209060040201600001549350600080876001600160a01b03166001600160a01b03168152602001908152602001600020858154811061066b57fe5b60009182526020808320600160049093020191909101546001600160a01b0389811684529183905260409092208054919092169450869081106106aa57fe5b600091825260209182902060026004909202018101805460408051601f6000196101006001861615020190931694909404918201859004850284018501905280835291929091908301828280156107425780601f1061071757610100808354040283529160200191610742565b820191906000526020600020905b81548152906001019060200180831161072557829003601f168201915b50505050509150600080876001600160a01b03166001600160a01b03168152602001908152602001600020858154811061077857fe5b906000526020600020906004020160030154905092959194509250565b6000610bb88251111561080957604080517f08c379a000000000000000000000000000000000000000000000000000000000815260206004820152601060248201527f6465736320697320746f6f206c6f6e6700000000000000000000000000000000604482015290519081900360640190fd5b3360008181526020818152604080832081516080810183528881528084019586529182018781524260608401819052825460018082018086559488529686902085516004909202019081559651958701805473ffffffffffffffffffffffffffffffffffffffff19166001600160a01b0390971696909617909555518051949591949293919261089f926002850192019061097a565b50606082015181600301555050507f834d96fe4fae8c45fce8c6cb6116dd1a578f5abefcf3c339a16106d8e038c17f8433858460405180858152602001846001600160a01b03166001600160a01b0316815260200180602001838152602001828103825284818151815260200191508051906020019080838360005b8381101561093357818101518382015260200161091b565b50505050905090810190601f1680156109605780820380516001836020036101000a031916815260200191505b509550505050505060405180910390a15060019392505050565b828054600181600116156101000203166002900490600052602060002090601f016020900481019282601f106109bb57805160ff19168380011785556109e8565b828001600101855582156109e8579182015b828111156109e85782518255916020019190600101906109cd565b506109f49291506109f8565b5090565b610a1291905b808211156109f457600081556001016109fe565b9056fea165627a7a723058208dc26bca2569b0591adbbd49e369e7ae3688eaf7bfc4a7ffe1810eafc317e13b0029",
  "source": "pragma solidity ^0.5.6;\n\ncontract HispaceActivity {\n\n  struct UserActivity {\n    bytes32 activityType;\n    address targetAddress;\n    bytes desc;\n    uint256 datetime;\n  }\n\n  mapping(address => UserActivity[]) private activityHistory;\n\n  event activity(bytes32 activityType, address who, bytes desc, uint256 datetime);\n\n  /**\n  * @dev 활동기록\n  * @param activityType bytes32\n  * @param desc bytes\n  */\n  function saveActivity(bytes32 activityType, bytes memory desc) public returns (bool) {\n    require(desc.length <= 3000,\"desc is too long\");\n    uint256 currentTime = now;\n    activityHistory[msg.sender].push(UserActivity(activityType, msg.sender, desc, currentTime));\n    emit activity(activityType, msg.sender, desc, currentTime);\n    return true;\n  }\n\n  /**\n  * @dev 활동기록 - 대상지정\n  * @param activityType bytes32\n  * @param to address\n  * @param desc bytes\n  */\n  function saveActivityTo(bytes32 activityType, address to, bytes memory desc) public returns (bool) {\n    require(desc.length <= 3000,\"desc is too long\");\n    uint256 currentTime = now;\n    activityHistory[msg.sender].push(UserActivity(activityType, to, desc, currentTime));\n    activityHistory[to].push(UserActivity(activityType, msg.sender, desc, currentTime));\n    emit activity(activityType, msg.sender, desc, currentTime);\n    return true;\n  }\n\n  /**\n  * @dev 활동기록 조회\n  * @param who address\n  * @param idx uint256\n  */\n  function historyOf(address who, uint256 idx) public view returns (bytes32 activityType, address targetAddress, bytes memory desc, uint256 datetime) {\n    require(activityHistory[who].length > idx, \"out of range\");\n\n    activityType = activityHistory[who][idx].activityType;\n    targetAddress = activityHistory[who][idx].targetAddress;\n    desc = activityHistory[who][idx].desc;\n    datetime = activityHistory[who][idx].datetime;\n  }\n\n  /**\n  * @dev 활동기록 개수 조회\n  * @param who address\n  */\n  function historySizeOf(address who) public view returns (uint256) {\n    return activityHistory[who].length;\n  }\n}\n",
  "sourcePath": "/Users/zf/henesis/contract-hispace/contracts/HispaceActivity.sol",
  "compiler": {
    "name": "solc",
    "version": "0.5.6+commit.b259423e.Emscripten.clang"
  },
  "schemaVersion": "3.0.23",
  "updatedAt": "2020-03-25T13:35:31.197Z",
  "networkType": "ethereum",
  "devdoc": {
    "methods": {
      "historyOf(address,uint256)": {
        "details": "활동기록 조회",
        "params": {
          "idx": "uint256",
          "who": "address"
        }
      },
      "historySizeOf(address)": {
        "details": "활동기록 개수 조회",
        "params": {
          "who": "address"
        }
      },
      "saveActivity(bytes32,bytes)": {
        "details": "활동기록",
        "params": {
          "activityType": "bytes32",
          "desc": "bytes"
        }
      },
      "saveActivityTo(bytes32,address,bytes)": {
        "details": "활동기록 - 대상지정",
        "params": {
          "activityType": "bytes32",
          "desc": "bytes",
          "to": "address"
        }
      }
    }
  },
  "userdoc": {
    "methods": {}
  }
}