{
  "contractName": "RewardPool",
  "abi": [
    {
      "constant": true,
      "inputs": [
        {
          "name": "",
          "type": "address"
        },
        {
          "name": "",
          "type": "uint8"
        }
      ],
      "name": "rewardToken",
      "outputs": [
        {
          "name": "",
          "type": "uint256"
        }
      ],
      "payable": false,
      "stateMutability": "view",
      "type": "function"
    },
    {
      "inputs": [
        {
          "name": "tokenAddr",
          "type": "address"
        }
      ],
      "payable": false,
      "stateMutability": "nonpayable",
      "type": "constructor"
    },
    {
      "constant": true,
      "inputs": [],
      "name": "token",
      "outputs": [
        {
          "name": "",
          "type": "address"
        }
      ],
      "payable": false,
      "stateMutability": "view",
      "type": "function"
    },
    {
      "constant": true,
      "inputs": [],
      "name": "rewardBalance",
      "outputs": [
        {
          "name": "",
          "type": "uint256"
        }
      ],
      "payable": false,
      "stateMutability": "view",
      "type": "function"
    },
    {
      "constant": true,
      "inputs": [
        {
          "name": "recipient",
          "type": "address"
        },
        {
          "name": "week",
          "type": "uint8"
        }
      ],
      "name": "rewardOf",
      "outputs": [
        {
          "name": "",
          "type": "uint256"
        }
      ],
      "payable": false,
      "stateMutability": "view",
      "type": "function"
    },
    {
      "constant": false,
      "inputs": [
        {
          "name": "recipient",
          "type": "address"
        },
        {
          "name": "amount",
          "type": "uint256"
        },
        {
          "name": "week",
          "type": "uint8"
        },
        {
          "name": "memo",
          "type": "bytes"
        }
      ],
      "name": "payReward",
      "outputs": [
        {
          "name": "",
          "type": "bool"
        }
      ],
      "payable": false,
      "stateMutability": "nonpayable",
      "type": "function"
    }
  ],
  "bytecode": "0x608060405234801561001057600080fd5b506040516020806106598339810180604052602081101561003057600080fd5b5051600080546001600160a01b039092166001600160a01b03199092169190911790556105f7806100626000396000f3fe608060405234801561001057600080fd5b50600436106100675760003560e01c8063aa5c3ab411610050578063aa5c3ab4146100dc578063c3dc1772146100e4578063fc0c546a1461018757610067565b8063371331251461006c578063605f1494146100ad575b600080fd5b61009b6004803603604081101561008257600080fd5b5080356001600160a01b0316906020013560ff166101ab565b60408051918252519081900360200190f35b61009b600480360360408110156100c357600080fd5b5080356001600160a01b0316906020013560ff166101c8565b61009b6101f5565b610173600480360360808110156100fa57600080fd5b6001600160a01b038235169160208101359160ff604083013516919081019060808101606082013564010000000081111561013457600080fd5b82018360208201111561014657600080fd5b8035906020019184600183028401116401000000008311171561016857600080fd5b50909250905061028b565b604080519115158252519081900360200190f35b61018f610518565b604080516001600160a01b039092168252519081900360200190f35b600160209081526000928352604080842090915290825290205481565b6001600160a01b038216600090815260016020908152604080832060ff8516845290915290205492915050565b60008054604080517f70a0823100000000000000000000000000000000000000000000000000000000815230600482015290516001600160a01b03909216916370a0823191602480820192602092909190829003018186803b15801561025a57600080fd5b505afa15801561026e573d6000803e3d6000fd5b505050506040513d602081101561028457600080fd5b5051905090565b60008054604080517fbb5f747b00000000000000000000000000000000000000000000000000000000815233600482015290516001600160a01b039092169163bb5f747b91602480820192602092909190829003018186803b1580156102f057600080fd5b505afa158015610304573d6000803e3d6000fd5b505050506040513d602081101561031a57600080fd5b505161035a57604051600160e51b62461bcd02815260040180806020018281038252604081526020018061058c6040913960400191505060405180910390fd5b846103636101f5565b10156103b95760408051600160e51b62461bcd02815260206004820152601f60248201527f7472616e7366657220616d6f756e7420657863656564732062616c616e636500604482015290519081900360640190fd5b60008054604080517fa9059cbb0000000000000000000000000000000000000000000000000000000081526001600160a01b038a81166004830152602482018a90529151919092169263a9059cbb92604480820193602093909283900390910190829087803b15801561042b57600080fd5b505af115801561043f573d6000803e3d6000fd5b505050506040513d602081101561045557600080fd5b50516104ab5760408051600160e51b62461bcd02815260206004820152600f60248201527f4661696c6564207472616e6665722e0000000000000000000000000000000000604482015290519081900360640190fd5b6001600160a01b038616600090815260016020908152604080832060ff881684529091529020546104e2908663ffffffff61052716565b6001600160a01b038716600090815260016020818152604080842060ff8a16855290915290912091909155905095945050505050565b6000546001600160a01b031690565b6000828201838110156105845760408051600160e51b62461bcd02815260206004820152601b60248201527f536166654d6174683a206164646974696f6e206f766572666c6f770000000000604482015290519081900360640190fd5b939250505056fe57686974656c69737441646d696e526f6c653a2063616c6c657220646f6573206e6f742068617665207468652057686974656c69737441646d696e20726f6c65a165627a7a72305820257f7749d329a6a9f7adb25c3aee3ed55a3db24d7b667a96d17e16c3c0e8f04d0029",
  "source": "pragma solidity ^0.5.6;\n\nimport \"./token/HiblocksIERC20.sol\";\nimport \"@openzeppelin/contracts/math/SafeMath.sol\";\n\ncontract RewardPool {\n    using SafeMath for uint256;\n    /**\n    * @dev ERC20 Token under lockable functionality\n    */\n    HiblocksIERC20 private _token;\n\n    // rewardToken[address][week] = rewardToken\n    mapping(address => mapping(uint8 => uint256)) public rewardToken;\n\n    /**\n     * @dev Check for administrator privileges.\n     */\n    modifier onlyWhitelistAdmin() {\n        require(_token.isWhitelistAdmin(msg.sender), \"WhitelistAdminRole: caller does not have the WhitelistAdmin role\");\n        _;\n    }\n\n    /**\n    * @dev constructor of network reward pool\n    * @param tokenAddr address of hiblocks tokens\n    */\n    constructor(address tokenAddr) public {\n        _token = HiblocksIERC20(tokenAddr);\n    }\n\n    /**\n    * @return the token being held.\n    */\n    function token() external view returns (HiblocksIERC20) {\n        return _token;\n    }\n\n    /**\n     * @dev Returns the amount of tokens owned by `account`.\n     */\n    function rewardBalance() public view returns (uint256) {\n        return _token.balanceOf(address(this));\n    }\n\n    /**\n     * @dev rewarded token for a specified address and reward week of 10 years\n     * @param recipient The address of reward to.\n     * @param week reward week of 10 years.\n     */\n    function rewardOf(address recipient, uint8 week) external view returns (uint256) {\n        return rewardToken[recipient][week];\n    }\n\n    /**\n     * @dev Moves `amount` tokens from this contract's account to `recipient` with memo.\n     * @param recipient The address to transfer to.\n     * @param amount The amount to be transferred.\n     * @param week reward week of 10 years.\n     * @param memo The memo to be saved.\n     */\n    function payReward(address recipient, uint256 amount, uint8 week, bytes calldata memo) external onlyWhitelistAdmin returns (bool) {\n        require(rewardBalance() >= amount, \"transfer amount exceeds balance\");\n        require(_token.transfer(recipient, amount), \"Failed tranfer.\");\n        rewardToken[recipient][week] = rewardToken[recipient][week].add(amount);\n        return true;\n    }\n}\n",
  "sourcePath": "/Users/zf/henesis/contract-hispace/contracts/RewardPool.sol",
  "compiler": {
    "name": "solc",
    "version": "0.5.6+commit.b259423e.Emscripten.clang"
  },
  "schemaVersion": "3.0.13",
  "updatedAt": "2020-04-09T14:48:32.236Z",
  "devdoc": {
    "methods": {
      "constructor": {
        "details": "constructor of network reward pool",
        "params": {
          "tokenAddr": "address of hiblocks tokens"
        }
      },
      "payReward(address,uint256,uint8,bytes)": {
        "details": "Moves `amount` tokens from this contract's account to `recipient` with memo.",
        "params": {
          "amount": "The amount to be transferred.",
          "memo": "The memo to be saved.",
          "recipient": "The address to transfer to.",
          "week": "reward week of 10 years."
        }
      },
      "rewardBalance()": {
        "details": "Returns the amount of tokens owned by `account`."
      },
      "rewardOf(address,uint8)": {
        "details": "rewarded token for a specified address and reward week of 10 years",
        "params": {
          "recipient": "The address of reward to.",
          "week": "reward week of 10 years."
        }
      },
      "token()": {
        "return": "the token being held."
      }
    }
  },
  "userdoc": {
    "methods": {}
  }
}