{
  "contractName": "SaveBox",
  "abi": [
    {
      "inputs": [
        {
          "name": "_tokenAddr",
          "type": "address"
        }
      ],
      "payable": false,
      "stateMutability": "nonpayable",
      "type": "constructor"
    },
    {
      "anonymous": false,
      "inputs": [
        {
          "indexed": false,
          "name": "boxId",
          "type": "bytes32"
        },
        {
          "indexed": false,
          "name": "creator",
          "type": "address"
        }
      ],
      "name": "BoxCreated",
      "type": "event"
    },
    {
      "anonymous": false,
      "inputs": [
        {
          "indexed": false,
          "name": "boxId",
          "type": "bytes32"
        }
      ],
      "name": "BoxDestroyed",
      "type": "event"
    },
    {
      "anonymous": false,
      "inputs": [
        {
          "indexed": false,
          "name": "boxId",
          "type": "bytes32"
        },
        {
          "indexed": false,
          "name": "staker",
          "type": "address"
        },
        {
          "indexed": false,
          "name": "amount",
          "type": "uint256"
        }
      ],
      "name": "Stake",
      "type": "event"
    },
    {
      "anonymous": false,
      "inputs": [
        {
          "indexed": false,
          "name": "boxId",
          "type": "bytes32"
        },
        {
          "indexed": false,
          "name": "staker",
          "type": "address"
        },
        {
          "indexed": false,
          "name": "amount",
          "type": "uint256"
        }
      ],
      "name": "Unstake",
      "type": "event"
    },
    {
      "constant": false,
      "inputs": [],
      "name": "createBox",
      "outputs": [
        {
          "name": "_boxId",
          "type": "bytes32"
        }
      ],
      "payable": false,
      "stateMutability": "nonpayable",
      "type": "function"
    },
    {
      "constant": false,
      "inputs": [
        {
          "name": "_boxId",
          "type": "bytes32"
        },
        {
          "name": "_amount",
          "type": "uint256"
        }
      ],
      "name": "stakeTo",
      "outputs": [
        {
          "name": "",
          "type": "bool"
        }
      ],
      "payable": false,
      "stateMutability": "nonpayable",
      "type": "function"
    },
    {
      "constant": false,
      "inputs": [
        {
          "name": "_boxId",
          "type": "bytes32"
        }
      ],
      "name": "unstakeFrom",
      "outputs": [
        {
          "name": "",
          "type": "bool"
        }
      ],
      "payable": false,
      "stateMutability": "nonpayable",
      "type": "function"
    },
    {
      "constant": false,
      "inputs": [
        {
          "name": "_boxId",
          "type": "bytes32"
        }
      ],
      "name": "destroyBox",
      "outputs": [
        {
          "name": "",
          "type": "bool"
        }
      ],
      "payable": false,
      "stateMutability": "nonpayable",
      "type": "function"
    },
    {
      "constant": false,
      "inputs": [
        {
          "name": "_amount",
          "type": "uint256"
        }
      ],
      "name": "stake",
      "outputs": [
        {
          "name": "",
          "type": "bool"
        }
      ],
      "payable": false,
      "stateMutability": "nonpayable",
      "type": "function"
    },
    {
      "constant": false,
      "inputs": [],
      "name": "unstake",
      "outputs": [
        {
          "name": "",
          "type": "bool"
        }
      ],
      "payable": false,
      "stateMutability": "nonpayable",
      "type": "function"
    },
    {
      "constant": true,
      "inputs": [
        {
          "name": "_creator",
          "type": "address"
        },
        {
          "name": "_salt",
          "type": "uint256"
        }
      ],
      "name": "boxId",
      "outputs": [
        {
          "name": "",
          "type": "bytes32"
        }
      ],
      "payable": false,
      "stateMutability": "view",
      "type": "function"
    },
    {
      "constant": true,
      "inputs": [
        {
          "name": "_boxId",
          "type": "bytes32"
        },
        {
          "name": "_staker",
          "type": "address"
        }
      ],
      "name": "stakeAmount",
      "outputs": [
        {
          "name": "",
          "type": "uint256"
        }
      ],
      "payable": false,
      "stateMutability": "view",
      "type": "function"
    },
    {
      "constant": true,
      "inputs": [
        {
          "name": "_boxId",
          "type": "bytes32"
        }
      ],
      "name": "boxInfo",
      "outputs": [
        {
          "name": "creator",
          "type": "address"
        },
        {
          "name": "createdAt",
          "type": "uint256"
        },
        {
          "name": "balance",
          "type": "uint256"
        },
        {
          "name": "destroyed",
          "type": "bool"
        }
      ],
      "payable": false,
      "stateMutability": "view",
      "type": "function"
    }
  ],
  "bytecode": "0x608060405234801561001057600080fd5b50604051602080610a788339810180604052602081101561003057600080fd5b50516001600160a01b038116610091576040517f08c379a0000000000000000000000000000000000000000000000000000000008152600401808060200182810382526024815260200180610a546024913960400191505060405180910390fd5b600080546001600160a01b039092166001600160a01b0319909216919091179055610993806100c16000396000f3fe608060405234801561001057600080fd5b50600436106100a35760003560e01c8063a694fc3a11610076578063db41a9f21161005b578063db41a9f214610158578063e72a064314610184578063f2897fca146101b0576100a3565b8063a694fc3a1461011e578063d9d24bb61461013b576100a3565b80632def6620146100a85780634d125081146100c45780635b6156d0146100e15780637fa767bc14610104575b600080fd5b6100b06101ff565b604080519115158252519081900360200190f35b6100b0600480360360208110156100da57600080fd5b503561020f565b6100b0600480360360408110156100f757600080fd5b5080359060200135610328565b61010c610443565b60408051918252519081900360200190f35b6100b06004803603602081101561013457600080fd5b50356104fe565b6100b06004803603602081101561015157600080fd5b5035610510565b61010c6004803603604081101561016e57600080fd5b506001600160a01b0381351690602001356105f8565b61010c6004803603604081101561019a57600080fd5b50803590602001356001600160a01b0316610636565b6101cd600480360360208110156101c657600080fd5b503561065e565b604080516001600160a01b03909516855260208501939093528383019190915215156060830152519081900360800190f35b600061020a816106c9565b905090565b60006102196108e5565b50600082815260026020818152604092839020835160808101855281546001600160a01b0316808252600183015493820193909352928101549383019390935260039092015460ff1615156060820152906102be5760408051600160e51b62461bcd02815260206004820152601e60248201527f556e7374616b6546726f6d2f426f7820646f6573206e6f742065786973740000604482015290519081900360640190fd5b8060600151156103185760408051600160e51b62461bcd02815260206004820152601c60248201527f556e7374616b6546726f6d2f426f782069732064657374726f79656400000000604482015290519081900360640190fd5b610321836106c9565b9392505050565b60006103326108e5565b50600083815260026020818152604092839020835160808101855281546001600160a01b0316808252600183015493820193909352928101549383019390935260039092015460ff1615156060820152906103d75760408051600160e51b62461bcd02815260206004820152601a60248201527f5374616b65546f2f426f7820646f6573206e6f74206578697374000000000000604482015290519081900360640190fd5b8060600151156104315760408051600160e51b62461bcd02815260206004820152601860248201527f5374616b65546f2f426f782069732064657374726f7965640000000000000000604482015290519081900360640190fd5b61043b84846107d4565b949350505050565b336000818152600160208181526040808420548151606087901b81850152603480820192909252825180820390920182526054810180845282519285019290922080875260029094529482902080547fffffffffffffffffffffffff0000000000000000000000000000000000000000168717815542948101949094558290526074840194909452925190917f1a0338ba454efa7b5dd5c5959005b88bdb0c49158a1b8aa688022fea8b3c92ce919081900360940190a15090565b600061050a81836107d4565b92915050565b600081815260026020526040812080546001600160a01b0316331461056957604051600160e51b62461bcd0281526004018080602001828103825260248152602001806109196024913960400191505060405180910390fd5b6002810154156105ad57604051600160e51b62461bcd02815260040180806020018281038252602b81526020018061093d602b913960400191505060405180910390fd5b60038101805460ff191660011790556040805184815290517f6d4a80708a2f02884539e04025b182ff089573b05889ed5378f7ad815b7ffba99181900360200190a150600192915050565b604080516001600160a01b039390931660601b6020808501919091526034808501939093528151808503909301835260549093019052805191012090565b60009182526003602090815260408084206001600160a01b0393909316845291905290205490565b60008060008061066c6108e5565b5050506000928352505060026020818152604092839020835160808101855281546001600160a01b031680825260018301549382018490529382015494810185905260039091015460ff1615156060909101819052919390929190565b60008181526002602081815260408084206003835281852033808752908452828620805495830180548790039055869055855483517fa9059cbb00000000000000000000000000000000000000000000000000000000815260048101929092526024820186905292519194936001600160a01b039093169263a9059cbb9260448084019382900301818987803b15801561076257600080fd5b505af1158015610776573d6000803e3d6000fd5b505050506040513d602081101561078c57600080fd5b50506040805185815233602082015280820183905290517f603036e99a3a5d41c8ae4270ba66ed2be594f021382e1aada6226310af0b067f9181900360600190a15050919050565b60008281526002602081815260408084209283018054860190556003825280842033808652908352818520805487019055845482517f23b872dd00000000000000000000000000000000000000000000000000000000815260048101929092523060248301526044820187905291516001600160a01b03909216926323b872dd9260648084019382900301818887803b15801561087057600080fd5b505af1158015610884573d6000803e3d6000fd5b505050506040513d602081101561089a57600080fd5b50506040805185815233602082015280820185905290517f01b9b905b7a6ba28c62c1fe629bb4fe2f04219479f94ea8243fd031074b0f1379181900360600190a15060019392505050565b604051806080016040528060006001600160a01b031681526020016000815260200160008152602001600015158152509056fe44657374726f792f4f6e6c792063726561746f722063616e2064657374726f7920626f7844657374726f792f43616e6e6f742064657374726f79207768656e20626f78206861732062616c616e6365a165627a7a72305820567ef7a101cd7a9e75534fc407530e56955461835c64b57b718b2cf1e9fa796c002953617665426f782f746f6b656e20616464726573732063616e6e6f74206265207a65726f",
  "source": "pragma solidity 0.5.6;\n\nimport \"./interface/ISaveBox.sol\";\nimport \"./token/HiblocksIERC20.sol\";\n\ncontract SaveBox is ISaveBox {\n\n    struct Box {\n        address creator;\n        uint256 createdAt;\n        uint256 balance;\n        bool destroyed;\n    }\n\n    HiblocksIERC20 internal _token;\n\n    mapping(address => uint256) _nonce;\n\n    mapping(bytes32 => Box) _box;\n    mapping(bytes32 => mapping(address=>uint256)) _stake;\n\n    constructor(address _tokenAddr) public {\n        require(_tokenAddr != address(0), \"SaveBox/token address cannot be zero\");\n        _token = HiblocksIERC20(_tokenAddr);\n    }\n\n    function createBox() external returns (bytes32 _boxId) {\n        _boxId = keccak256(abi.encodePacked(msg.sender, _nonce[msg.sender]));\n        Box storage box = _box[_boxId];\n        box.creator = msg.sender;\n        box.createdAt = now;\n        emit BoxCreated(_boxId, msg.sender);\n    }\n\n    function stakeTo(bytes32 _boxId, uint256 _amount) external returns (bool) {\n        Box memory box = _box[_boxId];\n        require(box.creator != address(0), \"StakeTo/Box does not exist\");\n        require(!box.destroyed, \"StakeTo/Box is destroyed\");\n        return _stakeTo(_boxId, _amount);\n    }\n\n    function unstakeFrom(bytes32 _boxId) external returns (bool) {\n        Box memory box = _box[_boxId];\n        require(box.creator != address(0), \"UnstakeFrom/Box does not exist\");\n        require(!box.destroyed, \"UnstakeFrom/Box is destroyed\");\n        return _unstake(_boxId);\n    }\n\n    function destroyBox(bytes32 _boxId) external returns (bool) {\n        Box storage box = _box[_boxId];\n        require(box.creator == msg.sender, \"Destroy/Only creator can destroy box\");\n        require(box.balance == 0, \"Destroy/Cannot destroy when box has balance\");\n        box.destroyed = true;\n        emit BoxDestroyed(_boxId);\n        return true;\n    }\n\n    function stake(uint256 _amount) external returns (bool) {\n        return _stakeTo(bytes32(0), _amount);\n    }\n\n    function unstake() external returns (bool) {\n        return _unstake(bytes32(0));\n    }\n\n    function boxId(address _creator, uint256 _salt) external view returns (bytes32) {\n        return keccak256(abi.encodePacked(_creator, _salt));\n    }\n\n    function stakeAmount(bytes32 _boxId, address _staker) external view returns (uint256) {\n        return _stake[_boxId][_staker];\n    }\n\n    function boxInfo(bytes32 _boxId) external view returns (address creator, uint256 createdAt, uint256 balance, bool destroyed) {\n        Box memory box = _box[_boxId];\n        creator = box.creator;\n        createdAt = box.createdAt;\n        balance = box.balance;\n        destroyed = box.destroyed;\n    }\n\n    function _stakeTo(bytes32 _boxId, uint256 _amount) internal returns (bool) {\n        Box storage box = _box[_boxId];\n        box.balance = box.balance + _amount;\n        _stake[_boxId][msg.sender] = _stake[_boxId][msg.sender] + _amount;\n        _token.transferFrom(msg.sender, address(this), _amount);\n        emit Stake(_boxId, msg.sender, _amount);\n        return true;\n    }\n\n    function _unstake(bytes32 _boxId) internal returns (bool) {\n        Box storage box = _box[_boxId];\n        uint256 amount = _stake[_boxId][msg.sender];\n        box.balance = box.balance - amount;\n        _stake[_boxId][msg.sender] = 0;\n        _token.transfer(msg.sender, amount);\n        emit Unstake(_boxId, msg.sender, amount);\n    }\n}\n",
  "sourcePath": "/Users/zf/henesis/contract-hispace/contracts/SaveBox.sol",
  "compiler": {
    "name": "solc",
    "version": "0.5.6+commit.b259423e.Emscripten.clang"
  },
  "schemaVersion": "3.0.13",
  "updatedAt": "2020-03-25T13:34:56.529Z",
  "devdoc": {
    "methods": {}
  },
  "userdoc": {
    "methods": {}
  }
}